:10000000803102288731ED2F08002200540820009B
:10001000A500220053082000A4002200520820005E
:10002000A300220051082000A2007308A500720856
:10003000A4007108A3007008A2002208F40023089D
:10004000F5002408F6002508F7001730F736F60CFF
:10005000F50CF40C890B2628FF307405A000003045
:100060007505A10020082104031D372838285928C8
:100070002208F4002308F5002408F6002508F700FC
:100080000130F435F50DF60DF70D890B4128770891
:10009000760475047404031D4E284F28542802303A
:1000A000F0000030F10083280330F0000030F10050
:1000B0008328200A2104031D5E285F287F28220848
:1000C000F4002308F5002408F6002508F70009309D
:1000D000F435F50DF60DF70D890B682877087604D1
:1000E00075047404031975287728013078280030C6
:1000F000F800F9017808F0007908F100832804304D
:10010000F0000030F10008002100C500C301C40167
:100110002308D9002208D8002108D7002008D600DB
:1001200059082000BD00210058082000BC00210013
:1001300057082000BB00210056082000BA000030FC
:10014000C1000030C0000030BF000030BE00903160
:10015000062080310318AD28AE28C72801302100C1
:10016000C3000030C4005908F3005808F2005708D3
:10017000F1005608F0008C319D2480317308210075
:10018000D9007208D8007108D7007008D600210085
:10019000DC01DD01220058082100C90022005708B7
:1001A0002100C80043084404031DD728D828DD28AF
:1001B00022005B1DDC28DD28FB28210043084404C5
:1001C000031DE328E428E9282B30A9000030AA0009
:1001D000ED282D30A9000030AA002908A500250827
:1001E0002400A00001302100DC070030DD3DFF309D
:1001F000C807FF30C93D21005908F3005808F20034
:100200005708F1005608F000803105208031700356
:100210007104031D0C290D295F2921002408BF3E0C
:10022000A500FF3003180030A600003026021A3067
:1002300003192502031C1D291F2901302029003024
:10024000A700A8012708AB002808AC002B082C0445
:1002500003192B292C2936292530F000A830F1006C
:100260005C08203EA631032680313F292D30F00066
:10027000A830F1005C08203EA63103268031FD3015
:100280002100C807FF30C93D2030A5002508200007
:10029000A400210049082000A600210048082000F1
:1002A000A500210045089831442080312000250810
:1002B0002100A100200024082100A000EC2F210033
:1002C0005908F3005808F2005708F1005608F000EA
:1002D00080310520803170087104031D7029712957
:1002E000C32921002408BF3EA500FF3003180030B9
:1002F000A600003026021A3003192502031C8129AA
:100300008329013084290030A700A8012708AD0007
:100310002808AE002D082E0403198F2990299A2948
:100320002930F000A830F1005C08203EA6310326F9
:100330008031A3293130F000A830F1005C08203E64
:10034000A63103268031FD302100C807FF30C93DAA
:100350002030A50025082000A40021004908200025
:10036000A600210048082000A5002100450898317A
:1003700044208031200025082100A100200024080D
:100380002100A000EC2F3F302100E1008030E00090
:100390000030DF000030DE00DA01DB015908F30035
:1003A0005808F2005708F1005608F0000030F70036
:1003B0000030F6000030F5000030F400A7310927C6
:1003C00080310318E429E529A92A162A41302000A2
:1003D000A3002030A2000030A1000030A0002100C6
:1003E00061082000A700210060082000A60021006D
:1003F0005F082000A50021005E082000A4008D31C8
:10040000A9258031200023082100E10020002208D6
:100410002100E000200021082100DF00200020084A
:100420002100DE000130DA070030DB3D21005908F1
:100430002000BD00210058082000BC002100570802
:100440002000BB00210056082000BA004130A30064
:100450002030A2000030A1000030A000210061087F
:100460002000A700210060082000A60021005F08EE
:100470002000A50021005E082000A4008D31A925E0
:10048000803120002308C1002208C0002108BF00DD
:100490002008BE009031062080310318502A512ACE
:1004A000E629822A41302000C5002030C4000030F7
:1004B000C3000030C200210061082000C9002100F3
:1004C00060082000C80021005F082000C70021004C
:1004D0005E082000C6009031912080312000450840
:1004E0002100E100200044082100E0002000430832
:1004F0002100DF00200042082100DE00FF30DA0783
:10050000FF30DB3D210059082000BD0021005808C4
:100510002000BC00210057082000BB002100560825
:100520002000BA00210061082000C10021006008FD
:100530002000C00021005F082000BF0021005E08ED
:100540002000BE00903106208031031CA82AA92A71
:10055000522A21002408A500A6012508F600260835
:10056000F700A6316926803176082100A700270808
:10057000CB004B08A5002508CA0067304B06031DB9
:10058000C22AC32AEC2A220059085A04031DC92A88
:10059000CA2ACE2A0130D9000030DA005A08803A3F
:1005A0002100A50080302502031DD92A0130220038
:1005B00059020318DC2ADD2AE32A06302100C6008E
:1005C0000030C700F22A22005A082100C70022008A
:1005D00059082100C600F22A2200DA1BF02AF12A6B
:1005E000DD2AE32A67304B06031DF72AF82A252B5C
:1005F0005B08803AA5007F302502031D012BFC30EB
:100600005A02031C042B052B202B21004608FF3E19
:10061000A500FF30473DA6002608803AA7005B08EA
:10062000803A2702031D162B5A082502031C192B9A
:100630001A2B202B66302100A5002508CA00252B87
:1006400065302100A5002508CA004708BC004608FF
:10065000BB0067304B06031D2E2B2F2B392B66302A
:100660004A06031D342B352B3D2BDB1F382B392B32
:100670003D2B0130BB070030BC3D66304A06031DF0
:10068000422B432B5B2BDB1F462B472B512B3F3041
:10069000E1008030E0000030DF000030DE00DA01F1
:1006A000DB0167304B060319562B572B5B2B5A087F
:1006B000BB075B08BC3DD401D5015908CF005808E1
:1006C000CE005708CD005608CC006108C000600875
:1006D000BF005F08BE005E08BD00452C2100610818
:1006E0002000C500210060082000C40021005F0830
:1006F0002000C30021005E082000C20021004F0836
:100700002000C90021004E082000C80021004D082B
:100710002000C70021004C082000C6009031912025
:10072000803120004508DF004408DE004308DD007A
:100730004208DC009C311124803120005F08210038
:10074000D30020005E082100D20020005D082100B7
:10075000D10020005C082100D00053082000DF00F9
:10076000210052082000DE00210051082000DD0099
:10077000210050082000DC009931572180312000F1
:100780005D082100C20020005C082100C100530860
:100790002000A700210052082000A60021005108D7
:1007A0002000A500210050082000A40021006108BD
:1007B0002000A300210060082000A20021005F08A3
:1007C0002000A10021005E082000A0008D31A92595
:1007D000803120002308BD002208BC002108BB0096
:1007E0002008BA0021004F082000C10021004E0857
:1007F0002000C00021004D082000BF0021004C084F
:100800002000BE00A531C225803120003D08210016
:10081000CF0020003C082100CE0020003B08210032
:10082000CD0020003A082100CC0041302000C50056
:100830002030C4000030C3000030C2002100610835
:100840002000C900210060082000C80021005F08C6
:100850002000C70021005E082000C60090319120D2
:100860008031200045082100E100200044082100DB
:10087000E000200043082100DF00200042082100A2
:10088000DE000130D4070030D53D5508803AA50080
:100890003C08803A2502031D4F2C3B085402031CE0
:1008A000522C532C6E2B40302000A300A030A2000D
:1008B0000030A1000030A000210061082000A70046
:1008C000210060082000A60021005F082000A5008C
:1008D00021005E082000A4008D31A9258031200070
:1008E00023082100D300200022082100D20020008C
:1008F00021082100D100200020082100D0004F084D
:100900002000BD0021004E082000BC0021004D0841
:100910002000BB0021004C082000BA002100530831
:100920002000C100210052082000C0002100510811
:100930002000BF00210050082000BE00903106209A
:1009400080310318A42CA52CAF2C00302100D3003B
:100950000030D2000030D1000030D000D42C210073
:100960004F08F3004E08F2004D08F1004C08F0006B
:100970005308F7005208F6005108F5005008F4003B
:10098000A73109278031031CC62CC72CD42C210089
:100990004118CB2CCC2CD42C0030D3000030D2000A
:1009A0000030D1000030D00021005308F30052087D
:1009B000F2005108F1005008F0005908F7005808FB
:1009C000F6005708F5005608F400923145228031B0
:1009D00073082100CF007208CE007108CD007008A6
:1009E000CC004F082000BD0021004E082000BC00B4
:1009F00021004D082000BB0021004C082000BA0057
:100A00004130A3002030A2000030A1000030A0003F
:100A1000210040082000A70021003F082000A60078
:100A200021003E082000A50021003D082000A40070
:100A30008D31A925803120002308C1002208C00083
:100A40002108BF002008BE00903106208031031C21
:100A50002A2D2B2D662D01302100DA070030DB3DD9
:100A600041302000A3002030A2000030A10000305F
:100A7000A000210040082000A70021003F0820001E
:100A8000A60021003E082000A50021003D0820000E
:100A9000A4008D31A9258031200023082100C00049
:100AA000200022082100BF00200021082100BE00F4
:100AB000200020082100BD0066304A06031D612D7C
:100AC000622D662D0130BB070030BC3D210040087F
:100AD000E1003F08E0003E08DF003D08DE00653031
:100AE0004A060319742D752D7A2D5B08BA005A0831
:100AF000B9007C2DB901BA01B701B801B501B60141
:100B0000D401D501C72E210061082000C5002100B5
:100B100060082000C40021005F082000C3002100FD
:100B20005E082000C20021004F082000C9002100FB
:100B30004E082000C80021004D082000C7002100F9
:100B40004C082000C60090319120803120004508DB
:100B5000DF004408DE004308DD004208DC009C3171
:100B60001124803120005F082100D30020005E089E
:100B70002100D20020005D082100D10020005C0887
:100B80002100D00053082000DF002100520820007F
:100B9000DE00210051082000DD0021005008200067
:100BA000DC0099315721803120005D082100C2000E
:100BB00020005C082100C10022005B1AE02DE12D1D
:100BC000F72D210041084204031DE72DE82DF72DE4
:100BD00067304B06031DED2DEE2DF72DBA1FF12DBD
:100BE000F22DF72D0130B5070030B63D452E21001E
:100BF00037083804031DFD2DFE2D2D2EBA1F012EA2
:100C0000022E2D2E2E30A5005C08203E86000230DC
:100C10008700250881000130DC070030DD3DFF3012
:100C2000C807FF30C93D0130B7000030B8002D2E95
:100C30003030A5005C08203E860002308700250881
:100C400081000130DC070030DD3DFF30C807FF3098
:100C5000C93DFF30B507FF30B63D35083604031DEA
:100C6000322E332E182E4108303EA5005C08203E5F
:100C7000860002308700250881000130DC07003043
:100C8000DD3DFF30C807FF30C93D53082000A700F5
:100C9000210052082000A600210051082000A500D4
:100CA000210050082000A400210061082000A300BA
:100CB000210060082000A20021005F082000A100A0
:100CC00021005E082000A0008D31A9258031200080
:100CD0002308BD002208BC002108BB002008BA0080
:100CE00021004F082000C10021004E082000C00054
:100CF00021004D082000BF0021004C082000BE004C
:100D0000A531C225803120003D082100CF00200000
:100D10003C082100CE0020003B082100CD0020002F
:100D20003A082100CC0041302000C5002030C4002A
:100D30000030C3000030C200210061082000C9005B
:100D4000210060082000C80021005F082000C700C3
:100D500021005E082000C6009031912080312000E3
:100D600045082100E100200044082100E0002000A7
:100D700043082100DF00200042082100DE00FF3090
:100D8000B907FF30BA3D0130D4070030D53D5508D2
:100D9000803AA5003C08803A2502031DD12E3B086D
:100DA00054020318D42ED52EE32E21005D08803A7C
:100DB000A50080302502031DDF2E4B305C02031C92
:100DC000E22EE32E832D210037083804031DE92E7F
:100DD000EA2EFD2E22005B1EEE2EEF2EFD2E2E3073
:100DE0002100A5005C08203E86000230870025080F
:100DF00081000130DC070030DD3D21005C08203E31
:100E0000860002308700810165304A06031D092FE4
:100E10000A2FD12F4F30D4000030D5005408203E87
:100E20008600023087008101C301C401DB1F192F36
:100E30001A2F232F0130C3000030C400DA09DB0968
:100E4000DA0A0319DB0A0230C6000030C7005B2F44
:100E5000FF302100D407FF30D53D0A30F0000030CC
:100E6000F1005B08F3005A08F200A73157278031E0
:100E70007008303E2100A5005408203E8600023054
:100E80008700250881000A30F0000030F1005B087F
:100E9000F3005A08F2009831F820803171082100DF
:100EA000DB007008DA00FF30C607FF30C73DFF30B7
:100EB000C807FF30C93D5A085B04031D602F612F2E
:100EC000282F4708803AA50080302502031D6A2F8D
:100ED0000130460203186D2F6E2F282FFF3021009E
:100EE000D407FF30D53D43084404031D782F792FE4
:100EF0007E2F2B30AF000030B000822F2D30AF009E
:100F00000030B0002F08A5005408203E86000230B3
:100F1000870025088100FF30C807FF30C93DFF303A
:100F2000D407FF30D53D2408BF3EA500FF3003188D
:100F30000030A600003026021A3003192502031CD7
:100F4000A22FA42F0130A52F0030A700A801270849
:100F5000B3002808B40033083404031DB02FB12FA8
:100F6000B62F6530B1000030B200BA2F4530B10065
:100F70000030B2003108A5005408203E860002303F
:100F8000870025088100FF30C807FF30C93D54089D
:100F9000203EF0000230F1005C08203EA63103261E
:100FA000803120302100A50025082000A400210068
:100FB00049082000A600210048082000A5002100C3
:100FC0004508983144208031200025082100A100E7
:100FD000200024082100A00008004D3084000130CA
:100FE000850013309031002087312030840002309A
:100FF0008500503090310020873120009E316C2ECA
:1010000090340134923401349434013497340134EF
:10101000993401349B3401349D340134A0340134BB
:10102000A2340134A4340134A7340134A934013486
:10103000AB340134AE340134B0340134B234013451
:10104000B5340134B7340134B9340134BC3401341B
:10105000BE340134C1340134C3340134C6340134E4
:10106000C8340134CB340134CD340134D0340134AC
:10107000D2340134D5340134D8340134DA34013473
:10108000DD340134DF340134E2340134E534013439
:10109000E7340134EA340134ED340134EF340134FF
:1010A000F2340134F5340134F8340134FA340134C3
:1010B000FD34013400340234033402340634023483
:1010C000083402340B3402340E3402341134023446
:1010D00014340234173402341A3402341D34023406
:1010E00020340234233402342634023429340234C6
:1010F0002C3402342F340234323402343534023486
:10110000383402343B3402343E3402344234023444
:1011100045340234483402344B3402344E34023401
:101120005234023455340234583402345B340234BD
:101130005F34023462340234653402346934023478
:101140006C34023470340234733402347634023432
:101150007A3402347D3402348134023484340234EB
:10116000883402348C3402348F34023493340234A1
:10117000963402349A3402349E340234A134023458
:10118000A5340234A9340234AD340234B03402340C
:10119000B4340234B8340234BC340234C0340234BF
:1011A000C3340234C7340234CB340234CF34023473
:1011B000D3340234D7340234DB340234DF34023423
:1011C000E3340234E7340234EB340234EF340234D3
:1011D000F4340234F8340234FC340234003403347E
:1011E00004340334093403340D3403341134033428
:1011F000153403341A3403341E34033422340334D4
:10120000273403342B34033430340334343403347C
:10121000393403343D340334423403344634033424
:101220004B340334503403345434033459340334CA
:101230005E34033463340334673403346C3403346E
:1012400071340334763403347B3403347F34033411
:1012500084340334893403348E34033493340334B4
:10126000983403349D340334A3340334A834033452
:10127000AD340334B2340334B7340334BC340334F0
:10128000C2340334C7340334CC340334D23403348B
:10129000D7340334DC340334E2340334E734033426
:1012A000ED340334F2340334F8340334FD340334BE
:1012B00003340434093404340E3404341434043450
:1012C0001A34043420340434253404342B340434E4
:1012D00031340434373404343D3404344334043476
:1012E000493404344F340434553404345B34043406
:1012F00061340434673404346E3404347434043494
:101300007A34043480340434873404348D3404341F
:10131000933404349A340434A0340434A7340434A9
:10132000AD340434B4340434BB340434C134043430
:10133000C8340434CF340434D5340434DC340434B5
:10134000E3340434EA340434F1340434F834043437
:10135000FF340434063405340D34053414340534B4
:101360001B340534223405342A3405343134053431
:101370003834053440340534473405344E340534AC
:10138000563405345D340534653405346C34053425
:10139000743405347C340534833405348B3405349B
:1013A000933405349B340534A3340534AB3405340D
:1013B000B3340534BB340534C3340534CB3405347D
:1013C000D3340534DB340534E3340534EC340534EC
:1013D000F4340534FC340534053406340D34063455
:1013E000163406341E3406342734063430340634BA
:1013F00038340634413406344A340634533406341F
:101400005C340634653406346E340634773406347E
:101410008034063489340634923406349B340634DE
:10142000A5340634AE340634B7340634C134063439
:10143000CA340634D4340634DE340634E734063491
:10144000F1340634FB340634053407340E340734E3
:1014500018340734223407342C3407343634073434
:10146000413407344B340734553407345F34073480
:101470006A340734743407347F34073489340734CA
:10148000943407349F340734A9340734B434073410
:10149000BF340734CA340734D5340734E034073452
:1014A000EB340734F6340734013408340C34083490
:1014B00018340834233408342F3408343A340834C8
:1014C00046340834513408345D34083469340834FF
:1014D00075340834813408348D3408349934083430
:1014E000A5340834B1340834BD340834C934083460
:1014F000D6340834E2340834EF340834FB3408348A
:101500000834093415340934213409342E340934AB
:101510003B340934483409345534093462340934CD
:10152000703409347D3409348A34093498340934E8
:10153000A5340934B3340934C0340934CE34093401
:10154000DC340934EA340934F834093406340A3412
:1015500014340A3422340A3430340A343F340A341E
:101560004D340A345B340A346A340A3479340A3428
:1015700087340A3496340A34A5340A34B4340A342D
:10158000C3340A34D2340A34E2340A34F1340A342B
:1015900000340B3410340B341F340B342F340B3421
:1015A0003F340B344F340B345E340B346E340B3415
:1015B0007F340B348F340B349F340B34AF340B3403
:1015C000C0340B34D0340B34E1340B34F2340B34EC
:1015D00002340C3413340C3424340C3435340C34CD
:1015E00047340C3458340C3469340C347B340C34A8
:1015F0008C340C349E340C34B0340C34C2340C347F
:10160000D4340C34E6340C34F8340C340A340D344D
:101610001C340D342F340D3441340D3454340D3416
:1016200067340D347A340D348D340D34A0340D34D8
:10163000B3340D34C6340D34DA340D34ED340D3496
:1016400001340E3414340E3428340E343C340E3449
:1016500050340E3464340E3478340E348D340E34F9
:10166000A1340E34B6340E34CB340E34DF340E34A1
:10167000F4340E3409340F341F340F3434340F343F
:1016800049340F345F340F3474340F348A340F34D8
:10169000A0340F34B6340F34CC340F34E2340F346A
:1016A000F9340F340F341034263410343C341034F1
:1016B000533410346A341034813410349934103473
:1016C000B0341034C7341034DF341034F7341034ED
:1016D0000F341134273411343F341134573411345A
:1016E0007034113488341134A1341134BA341134C3
:1016F000D2341134EC341134053412341E34123423
:1017000038341234513412346B3412348534123478
:101710009F341234B9341234D4341234EE341234C7
:1017200009341334243413343E3413345A34133408
:101730007534133490341334AC341334C734133445
:10174000E3341334FF3413341B3414343834143476
:1017500054341434713414348D341434AA3414349D
:10176000C7341434E53414340234153420341534B9
:101770003D3415345B3415347934153498341534CC
:10178000B6341534D5341534F334153412341634D4
:101790003134163450341634703416348F341634D1
:1017A000AF341634CF341634EF3416340F341734C4
:1017B00030341734513417347134173492341734A9
:1017C000B4341734D5341734F63417341834183485
:1017D0003A3418345C3418347E341834A134183454
:1017E000C4341834E6341834093419342D34193417
:1017F000503419347434193498341934BC341934CD
:10180000E034193404341A3429341A344E341A3476
:1018100073341A3498341A34BD341A34E3341A3415
:1018200009341B342F341B3455341B347C341B34A3
:10183000A2341B34C9341B34F0341B3418341C3428
:101840003F341C3467341C348F341C34B7341C349C
:10185000DF341C3408341D3431341D345A341D3403
:1018600083341D34AD341D34D7341D3401341E345B
:101870002B341E3455341E3480341E34AB341E34A5
:10188000D6341E3401341F342D341F3459341F34E0
:1018900085341F34B1341F34DE341F340B3420340C
:1018A000383420346534203493342034C134203427
:1018B000EF3420341D3421344C3421347B34213432
:1018C000AA342134D934213409342234393422342D
:1018D0006934223499342234CA342234FB34223419
:1018E0002C3423345E3423348F342334C1342334F2
:1018F000F434233426342434593424348C342434BA
:10190000C0342434F4342434283425345C3425346D
:1019100090342534C5342534FA3425343034263413
:10192000663426349C342634D234263409342734A1
:0419300040342734E4
:10193A0073087204710470040319A42CA52CA72C33
:10194A008030F3060800F20120308600003087005C
:10195A00473FF000F01FB22CB32CD42C2000A00972
:10196A00A109A209A309A409A509A609A709A00A08
:10197A00031DD22CA10A031DD22CA20A031DD22CAC
:10198A00A30A031DD22CA40A031DD22CA50A031DE7
:10199A00D22CA60A031DD22CA70AF201F20A283079
:1019AA00860000308700473FF000F01FDD2CDE2C58
:1019BA00012D2000A809A909AA09AB09AC09AD099A
:1019CA00AE09AF09A80A031DFD2CA90A031DFD2CA7
:1019DA00AA0A031DFD2CAB0A031DFD2CAC0A031D2C
:1019EA00FD2CAD0A031DFD2CAE0A031DFD2CAF0A0A
:1019FA000130F0007008F20673308600003087006C
:101A0A000830F00000301E00F00B082D20002008DE
:101A1A002104220423042404250426042704031988
:101A2A00172D182D742DF101F10A272DA035A10DBE
:101A3A00A20DA30DA40DA50DA60DA70D0130F00052
:101A4A007008F107A71F2A2D2B2D1B2DF335F40D36
:101A5A00F50DF60DF70DF80DF90DFA0D27082F0201
:101A6A00031D512D26082E02031D512D25082D0276
:101A7A00031D512D24082C02031D512D23082B026E
:101A8A00031D512D22082A02031D512D2108290266
:101A9A00031D512D20082802031C542D552D662D97
:101AAA002008A8022108A93B2208AA3B2308AB3B2D
:101ABA002408AC3B2508AD3B2608AE3B2708AF3BC4
:101ACA007314A736A60CA50CA40CA30CA20CA10C8B
:101ADA00A00C0130F102031D732D742D2B2D7208F9
:101AEA000319782D792D972DF309F409F509F609CB
:101AFA00F709F809F909FA09F30A031D972DF40AF7
:101B0A00031D972DF50A031D972DF60A031D972D20
:101B1A00F70A031D972DF80A031D972DF90A031DCD
:101B2A00972DFA0A73082000A0007408A10075080E
:101B3A00A2007608A3007708A4007808A50079080F
:101B4A00A6007A08A7000800200023088039A80008
:101B5A002808AD002335A8002808B300A21FB62D17
:101B6A00B72DB82D331433080319BC2DBD2DCC2D38
:101B7A00330A031DC12DC22DCA2D0030A300003027
:101B8A00A2000030A1000030A000A217D42D00301E
:101B9A00A3000030A2000030A1000030A0002708F6
:101BAA008039A8002808AD062735A8002808B20001
:101BBA00A61FE02DE12DE22D321432080319E62D7D
:101BCA00E72DF62D320A031DEB2DEC2DF42D0030F6
:101BDA00A7000030A6000030A5000030A400A61718
:101BEA00FE2D0030A7000030A6000030A50000300E
:101BFA00A40032080319022E032E082E3308031DEF
:101C0A00072E082E112E0030A3000030A20000304B
:101C1A00A1000030A000FF2F2008A8002808F0002B
:101C2A002608A63146268D3171082000B9007008B1
:101C3A00B8003808A800A901AA01AB012B08B10015
:101C4A002A08B0002908AF002808AE003908A80001
:101C5A00A901AA01AB012B08B7002A08B600290876
:101C6A00B5002808B4002108A8002808F0002508B3
:101C7A00A63146268D3171082000B9007008B800D7
:101C8A003808A800A901AA01AB012808AE0729084B
:101C9A00AF3D2A08B03D2B08B13D3908A800A9017B
:101CAA00AA01AB012808B4072908B53D2A08B63DA0
:101CBA002B08B73D2208A8002808F0002408A631FE
:101CCA0046268D3171082000B9007008B80038081E
:101CDA00A800A901AA01AB012808AE072908AF3D4F
:101CEA002A08B03D2B08B13D3908A800A901AA016C
:101CFA00AB012808B4072908B53D2A08B63D2B08C8
:101D0A00B73D0830AE35AF0DB00DB10D890B872E3A
:101D1A002108A8002808F0002408A63146268D319B
:101D2A0071082000B9007008B8003808AE073908F1
:101D3A00AF3D0030B03DB13D2008A8002808F000B2
:101D4A002508A63146268D3171082000B900700891
:101D5A00B8003808AE073908AF3D0030B03DB13D94
:101D6A000830AE35AF0DB00DB10D890BB62E200877
:101D7A00A8002808F0002408A63146268D317108EB
:101D8A002000B9007008B8003808AE073908AF3D1E
:101D9A000030B03DB13D2108A8002808F00026080F
:101DAA00A63146268D3171082000B9007008B800A6
:101DBA003808B4073908B53D0030B63DB73D2208AA
:101DCA00A8002808F0002508A63146268D3171089A
:101DDA002000B9007008B8003808B4073908B53DC2
:101DEA000030B63DB73D2208A8002808F0002608B2
:101DFA00A63146268D3171082000B9007008B80056
:101E0A003808A8003908A900AA01AB010830A8358A
:101E1A00A90DAA0DAB0D890B0C2F2808B4072908A8
:101E2A00B53D2A08B63D2B08B73D2E08A8002F0855
:101E3A00A9003008AA003108AB001830AB36AA0C4A
:101E4A00A90CA80C890B232F2808B4072908B53D2B
:101E5A002A08B63D2B08B73D0830AE35AF0DB00D98
:101E6A00B10D890B322F33083207A800A901A90D39
:101E7A002808823EB800FF30293DB9005B2F0130A7
:101E8A00B435B50DB60DB70D890B452FB11F4E2FC1
:101E9A004F2F502F34140130AE35AF0DB00DB10DA8
:101EAA00890B512FFF30B807FF30B93DB61F5E2F9F
:101EBA005F2F442FB201B11F632F642F802FFF3091
:101ECA002E05A800FF302F05A900FF303005AA0013
:101EDA007F303105AB002B082A0429042804031992
:101EEA00772F782F7B2FB201B20A802F341C7E2FD6
:101EFA007F2F802F782F32080319842F852FAD2F3B
:101F0A000130B4070030B53D0030B63D0030B73D72
:101F1A00371C902F912FAD2F3408A8003508A9003F
:101F2A003608AA003708AB000130AC00AB37AA0C60
:101F3A00A90CA80CAC0B9B2F2B08B7002A08B600DB
:101F4A002908B5002808B4000130B8070030B93DA7
:101F5A003908803AA80080302802031DB62FFF30C6
:101F6A003802031CB92FBA2FC42F7F302000B700C4
:101F7A008030B6000030B5000030B400F32F2000E6
:101F8A003908803AA80080302802031DCE2F01307C
:101F9A0038020318D12FD22FDD2F00302000B700CE
:101FAA000030B6000030B5000030B400AD01F32FA8
:101FBA0020003808A8002808B300FF30B405FF3015
:101FCA00B5057F30B6050030B705331CED2FEE2F6F
:101FDA00EF2FB6173336A8002808B7002D08A80037
:101FEA002808B7043708A3003608A2003508A1005C
:101FFA003408A0000800640080010131890B01281F
:10200A000034003020003A05C20000303B05C3000E
:10201A0080303C05C4007F303D05C50045084404B6
:10202A0043044204031D1A281B2823280030BD003C
:10203A000030BC000030BB000030BA0000303E0562
:10204A00C20000303F05C30080304005C4007F3025
:10205A004105C5004508440443044204031D3628CB
:10206A0037283F280030C1000030C0000030BF00D0
:10207A000030BE00BD1F422843285B280030C20042
:10208A000030C3000030C4008030C5003A08C202E4
:10209A003B08C33B3C08C43B3D08C53B4508BD0063
:1020AA004408BC004308BB004208BA00C11F5E28AE
:1020BA005F2877280030C2000030C3000030C40017
:1020CA008030C5003E08C2023F08C33B4008C43BFB
:1020DA004108C53B4508C1004408C0004308BF0089
:1020EA004208BE008030BD068030C10641083D026C
:1020FA00031D892840083C02031D89283F083B022A
:10210A00031D89283E083A0203188C288D288F2837
:10211A000310902803140800200049088039CA00D7
:10212A004A08D3004935CA004A08DA00C81F9E285F
:10213A009F28A0285A145A080319A428A528B528A4
:10214A005A0A031DA928AA28B2280030C90000305B
:10215A00C8000030C7000030C600C817C901BD2832
:10216A000030C9000030C8000030C7000030C60087
:10217A0045088039CA004A08D3064535CA004A08C4
:10218A00DB00C41FC928CA28CB285B145B080319C3
:10219A00CF28D028E0285B0A031DD428D528DD28BB
:1021AA000030C5000030C4000030C3000030C20057
:1021BA00C417C501E8280030C5000030C40000304B
:1021CA00C3000030C2004508440443044204031D0E
:1021DA00EF28F02809290030C9000030C800003073
:1021EA00C7000030C6008030C8047F30C9045308D5
:1021FA00CA004A08C9044908C5004808C400470873
:10220A00C3004608C200442A5A08031D0D290E2994
:10221A0017290030C5000030C4000030C300003068
:10222A00C200442A5A08CA00CB014B08CD005B08F9
:10223A004A02CC00031CCD034C087F3ED400003078
:10224A004D3DD5004908D2004808D1004708D000C2
:10225A004608CF000030C9000030C8000030C7006F
:10226A000030C6000030D9000030D8000030D70056
:10227A000030D600DB017F295B080319452946296E
:10228A0060290130CF35D00DD10DD20D890B4729E8
:10229A000130C635C70DC80DC90D890B4E29D91F86
:1022AA0057295829592946140130D635D70DD80D42
:1022BA00D90D890B5A2945085202031D6E29440873
:1022CA005102031D6E2943085002031D6E2942085C
:1022DA004F02031C712972297B2959174208CF0220
:1022EA004308D03B4408D13B4508D23B0130CA00E1
:1022FA004A08DB071A305B02031C84298529412915
:10230A005208510450044F0403198C298D29A62917
:10231A005614A6290130C635C70DC80DC90D890B3B
:10232A009029D91F99299A299B2946140130D63513
:10233A00D70DD80DD90D890B9C29FF30D407FF3052
:10234A00D53DC81FA929AA298F29DB01D91FAE2982
:10235A00AF29CB29FF305605CA00FF305705CB00FD
:10236A00FF305805CC007F305905CD004D084C048C
:10237A004B044A040319C229C329C629DB01DB0A13
:10238A00CB29461CC929CA29CB29C3295B080319A9
:10239A00CF29D029F8290130C6070030C73D0030BF
:1023AA00C83D0030C93D491CDB29DC29F82946080B
:1023BA00CA004708CB004808CC004908CD000130C4
:1023CA00CE00CD37CC0CCB0CCA0CCE0BE6294D086F
:1023DA00C9004C08C8004B08C7004A08C6000130AB
:1023EA00D4070030D53D5508803ACA0080304A02E9
:1023FA00031D012AFF305402031C042A052A122A4B
:10240A00FF302000D4000030D5000030C900003071
:10241A00C8000030C7000030C60020005508803AC6
:10242A00CA0080304A02031D1C2A013054020318D4
:10243A001F2A202A2C2A2000D401D5010030C900E5
:10244A000030C8000030C7000030C600D3012000A9
:10245A005408CA004A08DA005A1C342A352A372A8C
:10246A00C8173B2A7F30CA004A08C8055A36CA002C
:10247A004A08C9005308CA004A08C90400290800C2
:10248A00730880392000A0002008F8007335A000E6
:10249A002008FA00F21F522A532A542A7A147A0878
:1024AA000319582A592A692A7A0A031D5D2A5E2ABB
:1024BA00662A0030F3000030F2000030F1000030EC
:1024CA00F000F217F301712A0030F3000030F20035
:1024DA000030F1000030F00077088039A0002008B1
:1024EA00F9007908780603197B2A7C2A7D2A78174D
:1024FA007735A0002008F900F61F842A852A862A43
:10250A007914790803198A2A8B2A9B2A790A031DC6
:10251A008F2A902A982A0030F7000030F6000030FF
:10252A00F5000030F400F617F701A32A0030F7008F
:10253A000030F6000030F5000030F4007A08790225
:10254A000318A82AA92AED2A781FAC2AAD2AB12A8B
:10255A008030A0002008F8067A08A0002008FB00B6
:10256A007908A0002008FA007B08A0002008F900DA
:10257A007008A0002008FB007408A0002008F000E2
:10258A007B08A0002008F4007108A0002008FB00C6
:10259A007508A0002008F1007B08A0002008F500BB
:1025AA007208A0002008FB007608A0002008F200AC
:1025BA007B08A0002008F6007308A0002008FB0092
:1025CA007708A0002008F3007B08A0002008F70085
:1025DA00FB017908A000A1012108A3007A082002C2
:1025EA00A200031CA3032308803AA400803024021B
:1025FA00031D012B1A302202031C042B052B3F2B2F
:10260A007308720471047004031D0C2B0E2B013025
:10261A000F2B00302000A0002008FB000030F30040
:10262A000030F2000030F1000030F0007908A0001C
:10263A002008FA00452B7B1C232B242B2B2B7B36C3
:10264A0001382000A0002008FB002D2B0310FB0CF2
:10265A00701C302B312B322BFB1701302000A000CD
:10266A00F337F20CF10CF00CA00B352B0130A00063
:10267A002008FA0779087A02031C442B452B202BE1
:10268A00781B482B492B832B7A08031D4D2B4E2B85
:10269A00572B0030F3000030F2000030F100003018
:1026AA00F000832C7408F0077508F13D7608F23DB6
:1026BA007708F33D731C622B632B102C7B1C662B53
:1026CA00672B6E2B7B3601382000A0002008FB0008
:1026DA00702B0310FB0C701C732B742B752BFB17C0
:1026EA0001302000A000F337F20CF10CF00CA00B23
:1026FA00782B0130A0002008FA07102C7308803AC2
:10270A002000A0007708803A2002031D962B760845
:10271A007202031D962B75087102031D962B74080D
:10272A0070020318992B9A2BD22BFF30A000FF308E
:10273A00A100FF30A200FF30A30070087402A400B9
:10274A007108753BA5007208763BA6007308773BB3
:10275A00A7002408A0072508A13D2608A23D2708AE
:10276A00A33D2308F3002208F2002108F100200803
:10277A00F0008030A0002008F806FB09FB0A7B085D
:10278A00031DC82BC92BDA2B0130F0070030F13DAD
:10279A000030F23D0030F33DDA2B7408F002750880
:1027AA00F13B7608F23B7708F33B73087204710435
:1027BA007004031DE12BE22B0C2C7B08031DE62B76
:1027CA00E72B0C2C0030F3000030F2000030F1004F
:1027DA000030F000832C0130F035F10DF20DF30DCD
:1027EA00890BF12BFB1FFA2BFB2BFC2B70147B1C88
:1027FA00FF2B002C032C0314FB0D052C0310FB0DDF
:10280A007A080319092C0A2C0C2C0130FA02F21F3F
:10281A000F2C102CF02BF901FB1F142C152C232C38
:10282A007B087F3903191A2C1B2C1E2CF901F90A73
:10283A00232C701C212C222C232C1B2C79080319E5
:10284A00272C282C562C0130F0070030F13D00309F
:10285A00F23D0030F33D731C332C342C562C700897
:10286A002000A0007108A1007208A2007308A3004A
:10287A000130A400A337A20CA10CA00CA40B3F2C7E
:10288A002308F3002208F2002108F1002008F000D2
:10289A007A0A0319512C522C562C0130A000200818
:1028AA00FA077A0A03195A2C5B2C602C7A08031D42
:1028BA005F2C602C6E2C0030F3000030F2000030E8
:1028CA00F1000030F0007A08031D6C2C6D2C6E2C80
:1028DA00F8017A1C712C722C742CF217792C7F3027
:1028EA002000A0002008F2057A362000A000200867
:1028FA00F300F81F812C822C832CF3170800220086
:10290A00B60021006208860001308700403FE400DB
:10291A00413FE50064088400650885001200253AF5
:10292A00031D982C992CD82F620886000130870045
:10293A000130810741310318810A2200D701D801E9
:10294A00DB01DC01FF30D900FF30DA002100620828
:10295A00860001308700403FE400413FE5006408FB
:10296A0084006508850012002A3A031DBD2CBE2C7E
:10297A00E12C62088600013087000130810741316D
:10298A000318810A63088600013087000108840061
:10299A000130850002308107003F2200D700013F45
:1029AA00D800D81FD92CDA2C2A2D5B14D709D809BC
:1029BA00D70A0319D80A2A2D62088600013087002F
:1029CA00403FF600413FF7009A3178229431770868
:1029DA002200D8007608D700FC2C21006208860065
:1029EA00013087000130810741310318810A210033
:1029FA006208860001308700403FE400413FE5005D
:102A0A0064088400650885000008D03EE600FF30AF
:102A1A0003180030E700003067020A300319660223
:102A2A00031C182D1A2D01301B2D0030E800E90176
:102A3A0068082200A800210069082200A9002808C5
:102A4A002904031D292D2A2DF22C21006208860053
:102A5A0001308700403FE400413FE50064088400FC
:102A6A006508850012002E3A031D3C2D3D2DBE2D12
:102A7A002200D901DA0121006208860001308700AC
:102A8A000130810741310318810A6208860001304A
:102A9A008700403FE400413FE50064088400650880
:102AAA00850012002A3A031D5B2D5C2D752D6208E4
:102ABA008600013087000130810741310318810AFD
:102ACA006308860001308700010884000130850010
:102ADA0002308107003F2200D900013FDA00BE2DF3
:102AEA006208860001308700403FF600413FF70048
:102AFA009A317822943177082200DA007608D900D0
:102B0A00902D21006208860001308700013081077C
:102B1A0041310318810A21006208860001308700CA
:102B2A00403FE400413FE5006408840065088500F1
:102B3A000008D03EE600FF3003180030E7000030FE
:102B4A0067020A3003196602031CAC2DAE2D013050
:102B5A00AF2D0030E800E90168082200AA00210030
:102B6A0069082200AB002A082B04031DBD2DBE2DC7
:102B7A00862D21006208860001308700403FE4006C
:102B8A00413FE50064088400650885000008E60006
:102B9A00E7016608F6006708F700A631692694314E
:102BAA0076082100E80068082200B20032080319FA
:102BBA00DF2DE02D252E21006208860001308700D6
:102BCA00403FE400413FE5000130640784006508A6
:102BDA000318650A85000008E600E7016608F600A2
:102BEA006708F700A6316926943176082100E800C3
:102BFA0068082200B30033080319042E052E252E77
:102C0A0021006208860001308700403FE400413F0E
:102C1A00E50002306407840065080318650A850028
:102C2A000008E600E7016608F6006708F700A63123
:102C3A006926943176082100E80068082200B40069
:102C4A0021006208860001308700403FE400413FCE
:102C5A00E50064088400650885001200643A0319D7
:102C6A00372E382E4A2E6208860001308700403FF0
:102C7A00E400413FE500640884006508850012000D
:102C8A00693A031D492E4A2E9E2E6208860001309B
:102C9A0087000130810741310318810A63088600E1
:102CAA000130870001088400013085000230810765
:102CBA00003FE400013FE50064082200A000210073
:102CCA0065082200A100890D893B8909A200A30099
:102CDA00A400A500A600A70020082000B00022003A
:102CEA0021082000B100220022082000B2002200A0
:102CFA0023082000B300220024082000B400220088
:102D0A0025082000B500220026082000B60022006F
:102D1A0027082000B700220036089C31FC24943191
:102D2A00200031082100E300200030082100E200E1
:102D3A00FF2F663022003206031DA42EA52EF42E84
:102D4A0021006208860001308700403FE400413FCD
:102D5A00E50064088400650885000008E600660846
:102D6A002200B50021006208860001308700013088
:102D7A00810741310318810A630886000130870000
:102D8A00010884000130850004308107003F2200D9
:102D9A00AE00013FAF00023FB000033FB10031086F
:102DAA002100A300220030082100A20022002F08DF
:102DBA002100A10022002E082100A00022003508CF
:102DCA002100E4006408A40022003608803184202F
:102DDA00943121002108E3002008E200FF2F35305A
:102DEA00F000A830F1000230F2000030F300323077
:102DFA0098319D20943170087104031D052F062F08
:102E0A009D2F21006208860001308700403FE400C0
:102E1A00413FE50001306407840065080318650A2C
:102E2A0085000008E60066082200B5002100620855
:102E3A00860001308700403FE400413FE500640816
:102E4A008400650885000008BF3EE600FF300318CD
:102E5A000030E700003067021A3003196602031CCB
:102E6A00372F392F01303A2F0030E800E90168087E
:102E7A002200AC00210069082200AD002C082D04B4
:102E8A000319482F492F5E2F21006308860001305D
:102E9A008700010884000130850004308107003F63
:102EAA002200AE00013FAF00023FB000033FB10075
:102EBA00722F210063088600013087000108840010
:102ECA000130850004308107003F2200AE00013F37
:102EDA00AF00023FB000033FB10021006208860044
:102EEA00013087000230810741310318810A22002C
:102EFA0031082100A300220030082100A20022008C
:102F0A002F082100A10022002E082100A000220083
:102F1A0035082100E4006408A40022003608803144
:102F2A008420943121002108E3002008E200FF2FC9
:102F3A0021006208860001308700403FE400413FDB
:102F4A00E50064088400650885001200253A031D1F
:102F5A00AF2FB02FCC2F62088600013087000130D6
:102F6A00810741310318810A2530F0000030F10051
:102F7A00220036082100E4006408F200A731AA27DB
:102F8A00943101302100E2000030E300FF2F620893
:102F9A008600013087000130810741310318810A18
:102FAA00E201E301FF2F6208860001308700403FFB
:102FBA00E400413FE50064088400650885000008D4
:102FCA00E600E7016608F0006708F100220036080B
:102FDA002100E8006808F200A731AA2794312100ED
:102FEA0062088600013087000130810741310318E9
:102FFA00810AC62F080071082200E3007008E20067
:10300A000800F0002000111E0B280C280728700861
:10301A0023009A0008002200B70021006B08220052
:10302A00B90021006A082200B800D501D601332868
:10303A0038302100ED006D08E2006C08EE006E08E1
:10304A00E300220037089431842498312100620871
:10305A002200D507210063082200D63D38088400E3
:10306A00390885001200031D3B283C281D285608F4
:10307A002100EB00220055082100EA000800200088
:10308A00AB0022005B1C4A284B28542820002B083E
:10309A00FC007C08F8002408A631B42698312000E8
:1030AA00A61B582859285E282608AA002508A90020
:1030BA006028A901AA01A701A80174282030F000FC
:1030CA000030F10020002B08FC007C08F200A73138
:1030DA00AA27983101302000A7070030A83D280808
:1030EA00803AFC002A08803A7C02031D7E282908BF
:1030FA002702031C81288228632822005B1886285D
:10310A008728902820002B08FC007C08F800240857
:10311A00A631B426983120002408A5318925983192
:10312A00200029087007A4002A08713DA50008009C
:10313A00F5007508F4007408F8007108F7007008C3
:10314A00F6000130F2020030F33B720A031DB12887
:10315A00730A031DB128B228C128F001F101F7282A
:10316A000130F4007408F8070130F6070030F73D23
:10317A000130F2020030F33B780886000130870004
:10318A0001080319C928CA28E9287608840077089B
:10319A00850012000319D228D328E928720873047B
:1031AA000319D828D928E9287608840077088500E1
:1031BA000008F400780886000130870001087406C8
:1031CA000319E828E928B52878088600013087001D
:1031DA00760884007708850000080102F000F101F2
:1031EA00031CF1030800F601F11FFC28FD2804293D
:1031FA00F009F109F00A0319F10AF601F60AF31FB8
:10320A00072908291129F209F309F20A0319F30A0D
:10321A000130F4007408F606F701F8017008710429
:10322A000319182919294829F501F50A2529013010
:10323A00F035F10D890B1D290130F4007408F507EA
:10324A00F11F282929291C290130F735F80D890B86
:10325A002A2971087302031D342970087202031C9B
:10326A00372938293D297008F2027108F33B77148F
:10327A000130F136F00C890B3E290130F502031DAD
:10328A00472948292929760803194C294D29522901
:10329A00F709F809F70A0319F80A7808F100770814
:1032AA00F0000800031020005E0D5F0DE0006008CA
:1032BA00E6006608031D622963296C290030DF00D5
:1032CA000030DE000030DD000030DC00CB295C0875
:1032DA00E0005D08E1005E08E2005F08E3001F30DD
:1032EA00E336E20CE10CE00C890B75296008E40076
:1032FA006408E500DE17FF30DC05FF30DD05FF302E
:10330A00DE050030DF059630E602E61F8D298E299C
:10331A00A6296608803A973E031894299529962982
:10332A0063290130DF36DE0CDD0CDC0C890B9729B2
:10333A000130E0006008E607031DA429A5299629A3
:10334A00BB2920306602031CAB29AC29B6296329A4
:10335A000130DC35DD0DDE0DDF0D890BAE290130C4
:10336A00E6026608031DBA29BB29AD2965080319B7
:10337A00BF29C029CB29DC09DD09DE09DF09DC0AFE
:10338A000319DD0A0319DE0A0319DF0A0800F80027
:10339A0078080319D129D229E629F31FD529D62974
:1033AA00E6297009FA007109FB007209FC00730929
:1033BA00FD00FA0A0319FB0A0319FC0A0319FD0A9C
:1033CA00EE297308FD007208FC007108FB00700802
:1033DA00FA007308720471047004031DF529F629B2
:1033EA00FF290030F3000030F2000030F100003015
:1033FA00F000772A9630F4007408F9000F2A013099
:10340A00F4007408F9070130FD36FC0CFB0CFA0CC9
:10341A00890B092AFE307D05031D142A152A042A60
:10342A00292A0130F4007408F9070130FA0700303C
:10343A00FB3D0030FC3D0030FD3D0130FD36FC0C0B
:10344A00FB0CFA0C890B232AFF307D05031D2E2A5B
:10345A002F2A162A392A0130F9020130FA35FB0DD2
:10346A00FC0DFD0D890B332AFC1B3C2A3D2A432AFD
:10347A00023079020318422A432A302A7918462A46
:10348A00472A4F2AFF30FA05FF30FB057F30FC053B
:10349A00FF30FD050310F90C7908F400F501F60177
:1034AA00F7011830F435F50DF60DF70D890B572A8B
:1034BA007408FA047508FB047608FC047708FD040E
:1034CA0078080319692A6A2A6F2AF31F6D2A6E2A55
:1034DA006F2AFD177D08F3007C08F2007B08F100D3
:1034EA007A08F00008002000A701A801A001A101A4
:1034FA00822A0130F6070030F73DA601A60A7608AF
:10350A008400770885001200203A03198D2A8E2A32
:10351A00A32A76088400770885000008F73EF80099
:10352A00FF3003180030F900003079020530031922
:10353A007802031CA12AA22AA32AA6012608F800B7
:10354A00F9017808A2007908A30022082304031DC0
:10355A00AF2AB02A7E2ABA2A0130A0000030A10080
:10356A000130F6070030F73DEE2A76088400770826
:10357A0085000008F800F9017908003A0319C62AFB
:10358A00EE2A78082B3A0319B52A063A0319B12A02
:10359A00EE2A76088400770885000008F8002808D3
:1035AA00F1002708F0000A30F2000030F300A531DC
:1035BA00A3259A317108FA0078087002F900031CF1
:1035CA00FA037908303E2000A70000307A3DA800AF
:1035DA00B52A76088400770885000008D03EF800EE
:1035EA00FF3003180030F900003079020A3003195D
:1035FA007802031C012B032B0130042B0030FA0044
:10360A00FB017A08A4007B08A50024082504031DF1
:10361A000F2B102BCE2A20082104031D152B162B45
:10362A00222B2709F8002809F900F80A0319F90AD0
:10363A007808F6007908F700262B2808F7002708EB
:10364A00F6000800F2012830860000308700473F64
:10365A00F000F01F312B322B532B2000A809A909A7
:10366A00AA09AB09AC09AD09AE09AF09A80A031D3D
:10367A00512BA90A031D512BAA0A031D512BAB0A70
:10368A00031D512BAC0A031D512BAD0A031D512BEF
:10369A00AE0A031D512BAF0AF201F20A203086004E
:1036AA0000308700473FF000F01F5C2B5D2B7C2B1E
:1036BA002000A009A109A209A309A409A509A6092C
:1036CA00A709A00A031D7C2BA10A031D7C2BA20AB1
:1036DA00031D7C2BA30A031D7C2BA40A031D7C2B30
:1036EA00A50A031D7C2BA60A031D7C2BA70A200012
:1036FA002008210422042304240425042604270480
:10370A000319882B892BDC2BF101F10A982BA035A0
:10371A00A10DA20DA30DA40DA50DA60DA70D013097
:10372A00F0007008F107A71F9B2B9C2B8C2B2708F6
:10373A002F02031DBA2B26082E02031DBA2B2508B9
:10374A002D02031DBA2B24082C02031DBA2B2308B1
:10375A002B02031DBA2B22082A02031DBA2B2108A9
:10376A002902031DBA2B20082802031CBD2BBE2BDD
:10377A00CE2B2008A8022108A93B2208AA3B23082D
:10378A00AB3B2408AC3B2508AD3B2608AE3B2708DB
:10379A00AF3BA736A60CA50CA40CA30CA20CA10C3B
:1037AA00A00C0130F102031DDB2BDC2B9C2B7208D1
:1037BA000319E02BE12BFF2BA809A909AA09AB09D8
:1037CA00AC09AD09AE09AF09A80A031DFF2BA90A66
:1037DA00031DFF2BAA0A031DFF2BAB0A031DFF2B98
:1037EA00AC0A031DFF2BAD0A031DFF2BAE0A031DF6
:1037FA00FF2BAF0A20002808A0002908A1002A08E8
:10380A00A2002B08A3002C08A4002D08A5002E084E
:10381A00A6002F08A7000800220050082000EF0089
:10382A0022004F082000EE0022004E082000ED0082
:10383A0022004D082000EC005F08EF005E08EE0051
:10384A005D08ED005C08EC006C08E0006D08E10022
:10385A006E08E2006F08E3001730E336E20CE10C71
:10386A00E00C890B322CFF306005E4000030610562
:10387A00E5006408813EEA00FF30653DEB006B0815
:10388A00803AE00080306002031D4D2C17306A0236
:10389A00031C502C512C522CFB2C2000EB1B562CB9
:1038AA00572CB42CFF30E000FF30E1007F30E200FB
:1038BA000030E3006A0A652CE337E20CE10CE00C05
:1038CA00890B612C6308E9006208E8006108E700D7
:1038DA006008E6006C086605E0006D086705E1000F
:1038EA006E086805E2006F086905E3006308620470
:1038FA0061046004031D822C832C842C512C6C08D7
:10390A00E0006D08E1006E08E2006F08E3001F3076
:10391A00E336E20CE10CE00C890B8D2C630862049F
:10392A006104600403199A2C9B2CA32C6608EC07EB
:10393A006708ED3D6808EE3D6908EF3D6609E0005D
:10394A006709E1006809E2006909E3006008EC051B
:10395A006108ED056208EE056308EF05F32C6C08B3
:10396A00E0006D08E1006E08E2006F08E3001F3016
:10397A00E336E20CE10CE00C890BBD2C630862040F
:10398A0061046004031DCA2CCB2CD42C0030EF0038
:10399A000030EE000030ED000030EC00F32C6C0833
:1039AA00E0006D08E1006E08E2006F08E3000130F4
:1039BA00E035E10DE20DE30D890BDD2C63086204AD
:1039CA00610460040319EA2CEB2CF32CBF30EF00DE
:1039DA008030EE000030ED000030EC006F08DF00B0
:1039EA006E08DE006D08DD006C08DC0008002000AF
:1039FA00BD003008C4003108C5003208C6003308CB
:103A0A00C7003408C8003508C9003608CA00370894
:103A1A00CB004430860000308700473FB800B81B0F
:103A2A00172D192D01301A2D00302000B900BA01C6
:103A3A003908C2003A08C300420843040319262D74
:103A4A00272D452DC409C509C609C709C809C909C9
:103A5A00CA09CB09C40A031D452DC50A031D452DF4
:103A6A00C60A031D452DC70A031D452DC80A031D95
:103A7A00452DC90A031D452DCA0A031D452DCB0A2A
:103A8A002200DA1B492D4A2D4E2DFD30DB05FF3071
:103A9A00DC055A08803A2000B80080303802031D3D
:103AAA00592D01302200590203185C2D5D2D632D1A
:103ABA0001302000BE000030BF006B2D22005A08E2
:103ACA002000BF00220059082000BE00220058082A
:103ADA002000C100220057082000C0004208430409
:103AEA00031D782D792D7E2D22005B1D7D2D7E2DC7
:103AFA00832DFF302000C007FF30C13D4F3020002A
:103B0A00CC000030CD002400EF01F42DFF3020005E
:103B1A00CC07FF30CD3D0A30A000A101A201A301CC
:103B2A00A401A501A601A7014408A8004508A90007
:103B3A004608AA004708AB004808AC004908AD008F
:103B4A004A08AE004B08AF009B3127239C31200066
:103B5A002108F4002008F300A5316F259C31730871
:103B6A00303E2000B8004C08203E86000230870014
:103B7A0038088100FF30BE07FF30BF3DFF30C00765
:103B8A00FF30C13D0A30A000A101A201A301A40196
:103B9A00A501A601A7014408A8004508A9004608EE
:103BAA00AA004708AB004808AC004908AD004A081B
:103BBA00AE004B08AF008C31A8249C3120002008AD
:103BCA00C4002108C5002208C6002308C70024082B
:103BDA00C8002508C9002608CA002708CB0020000B
:103BEA004D08803AB80080303802031DFE2D01309E
:103BFA004C02031C012E022E2F2E200044084504DD
:103C0A0046044704480449044A044B04031D0E2E83
:103C1A000F2E8B2D3F08803AB80080303802031DE2
:103C2A00182E01303E0203181B2E1C2E8B2D20004D
:103C3A004108803AB80080303802031D262E013030
:103C4A004002031C292E2A2E2F2E2200DB182E2E8C
:103C5A002F2E8B2D200042084304031D352E362EAD
:103C6A003B2E22005B1D3A2E3B2E582EFF302000A1
:103C7A00CC07FF30CD3D42084304031D452E462E96
:103C8A004B2E2B30BB000030BC004F2E2D30BB001A
:103C9A000030BC003B08B8004C08203E86000230C9
:103CAA0087003808810020004C08203EB8003808F8
:103CBA00A4004108A6004008A5003D089831442008
:103CCA009C3120002508B1002408B0000800230018
:103CDA00C001C1014030B7004E30B600B830B5005F
:103CEA005230B400A431FD249E3102302200CC00AF
:103CFA004530CB00A930890B802ECB0B802ECC0B04
:103D0A00802E00320030F100A830F200A5311025D3
:103D1A009E3100302300BF000030BE000030BD00DD
:103D2A000030BC00C401C5010230A53127259E31EF
:103D3A0070082300BC077108BD3D0030BE3DBF3D81
:103D4A000130C4070030C53D4508803A2200CB0047
:103D5A0083304B02031DB42EE83023004402031CB7
:103D6A00B72EB82E992E3B302000A300A030A20017
:103D7A002830A1000A30A00023003F08F3003E08C3
:103D8A00F2003D08F1003C08F00001309931CC21E5
:103D9A009E3173082000A7007208A6007108A500CA
:103DAA007008A4008D31A9259E3120002308230024
:103DBA00BB00200022082300BA00200021082300AB
:103DCA00B900200020082300B80044302000C500B4
:103DDA007A30C4000030C3000030C20023003B0820
:103DEA002000C90023003A082000C800230039082F
:103DFA002000C700230038082000C6009031912017
:103E0A009E31200045082300C900200044082300F1
:103E1A00C800200043082300C700200042082300EE
:103E2A00C60037082000C100230036082000C00061
:103E3A00230035082000BF00230034082000BE00FC
:103E4A00230049082000BD00230048082000BC00C8
:103E5A00230047082000BB00230046082000BA00C0
:103E6A00A531C2259E3120003D08C9003C08C80082
:103E7A003B08C7003A08C6003A30C5008330C40080
:103E8A001230C3006F30C200903191209E31200061
:103E9A004508DF004408DE004308DD004208DC0074
:103EAA00993157219E3120005D082300CB00200064
:103EBA005C082300CA00CB1F632F642F672FCA0137
:103ECA00CB01742F02304B024D3003194A02031CF6
:103EDA006F2F702F742F4C30CA000230CB004B0862
:103EEA0085004A0884008435850D003084078830AF
:103EFA00853D003FC200013FC30019302200BA00CD
:103F0A00A830BB00230043082200BD00230042085A
:103F1A002200BC00230049082200C10023004808EF
:103F2A002200C000230047082200BF0023004608E1
:103F3A002200BE00A030A631DD269E31A030F1005D
:103F4A000130F200A53110259E31023023004302D0
:103F5A00BC30031942020318B32FB42FB82F220022
:103F6A008E140E10BB2F22008E100E1420000E1974
:103F7A00BF2FC02FED2F01302300C0070030C13DF5
:103F8A00023040064104031DCB2FCC2FF02FBB304B
:103F9A00F300A330F200D730F1000A30F0004908EC
:103FAA00F7004808F6004708F5004608F400923181
:103FBA0045229E3173082300B7007208B6007108C3
:103FCA00B5007008B4000230C0000030C100F02F04
:103FDA002300C001C10102302200CC004530CB00D1
:103FEA00A930890BF62FCB0BF62FCC0BF62F00320C
:063FFA008E2E803102282A
:1049A600163021009700080071082200E100700807
:1049B600E000080071082200E5007008E400080025
:1049C600320091019201930194019501960108002C
:1049D600803021009E009F019B019C0101309D00BB
:1049E60008006230320099009B019D0103309F0050
:1049F6009E010800A431E324A431A6318E26A431F9
:104A0600A431F424A431A431D324A431A431EB2459
:104A1600A431A6312426A43108001D2D7108840076
:104A260072088500000898310620A5310130F1078B
:104A36000030F23D71088400720885001200031DE3
:104A4600252D262D112D0800F3007308F200F20D16
:104A5600F20D21001D087206033972069D001D1411
:104A6600000021009D149D18392D3A2D362D1C0865
:104A7600F1001B08F00008007008D03EF200FF307D
:104A8600713DF300003073020A3003197202031CF1
:104A96004D2D4F2D0130502D0030F400F5017408D6
:104AA600F0007508F10008007008BF3EF200FF3004
:104AB600713DF300003073021A3003197202031CB1
:104AC600652D672D0130682D0030F400F50174085E
:104AD600F0007508F10008007408803AF50080308F
:104AE6007502031D782D0130730203187B2D7C2D72
:104AF600882D7309F5007409F600F50A0319F60AFC
:104B06007508F3007608F400882D0800F400740890
:104B1600F2007208F300932D0130F2007208F407D8
:104B260074088600023087000108031D9B2D9C2D0A
:104B36008F2D73087402F000F101F01BF1030800D9
:104B4600F401F501701CA82DA92DAD2D7208F407EE
:104B56007308F53D0130F235F30D890BAE2D0130AA
:104B6600F136F00C890BB32D70087104031DBC2DB2
:104B7600BD2DA52D7508F1007408F00008008030E1
:104B86002000BD064108F3004008F2003F08F1008E
:104B96003E08F0003D08F7003C08F6003B08F5002B
:104BA6003A08F40092314522A53173082000BD0071
:104BB6007208BC007108BB007008BA000800F40156
:104BC600F40A2030700671040319EA2DEB2DFB2D33
:104BD6007008F73EF200FF30713DF30000307302BB
:104BE600053003197202031CF92DFA2DFB2DF40171
:104BF6007408F200F3017208F0007308F10008006F
:104C0600F7007108F5007008F4007708F2007208E2
:104C1600F6007608860002308700F60A7508F3006B
:104C26007408F200F40A0319F50A7208840073087E
:104C360085000008C03F8908031D222E232E0C2E56
:104C46000800083023009F0090309D0024309E000D
:104C560019309B009C010030F0000030F100A431B7
:104C6600DD24A6310030F0000030F100983100203C
:104C7600A6310030F0000030F100A431D724A6316F
:104C86002200DF010800F800F401F5017008F200C7
:104C9600F3017208F6007308F700781C532E542EA1
:104CA600582E7608F4077708F53D0130F635F70DEE
:104CB600890B592E0310F80C7808031D632E642EF9
:104CC600502E7508F1007408F00008007608BF3E03
:104CD600F800FF30773DF900003079021A300319E9
:104CE6007802031C772E792E01307A2E0030FA00D6
:104CF600FB017A08FC007B08FD007C087D04031993
:104D0600852E862E8D2E20307604F6000030770410
:104D1600F7008D2E080022008C0103308E0007302C
:104D260021008C0024308E001B3023008E0037308B
:104D36008C0024008C0104308E0025008C018E012D
:104D4600373026008C003F308E003F3027008C0025
:104D56003F308E0015303C00A40014303D00A40006
:104D660008002000A300A101A201CC2E2008F90012
:104D7600FA017908F0007A08F1007808FB007B0850
:104D8600F200A731AA27A63101302000A107003082
:104D9600A23D21082307F900790886000230870022
:104DA6000108FA007A08A0002008031DDB2EDC2E7D
:104DB600B92E08002200C4003C302100EF006F0825
:104DC6002200C50044082100EF006F082200C6003B
:104DD600C701C801C901CA013B082100EB00220036
:104DE6003A082100EA004530EF006F08EC00463033
:104DF60098311020A6312200470844072100EF0011
:104E06006F088600013087008101080000307005B8
:104E1600F80000307105F90080307205FA007F3025
:104E26007305FB007B087A0479047804031D1C2FA4
:104E36001D2F252F0030F3000030F2000030F10066
:104E46000030F00000307405F80000307505F900F8
:104E560080307605FA007F307705FB007B087A0400
:104E660079047804031D382F392F412F0030F700BD
:104E76000030F6000030F5000030F40077087306C5
:104E8600031D4F2F76087206031D4F2F75087106F6
:104E9600031D4F2F740870060319522F532F552FD9
:104EA6000310562F03140800F601F31F5B2F5C2F27
:104EB600632FF209F309F20A0319F30AF601F60A57
:104EC600F11F662F672F6C2FF009F109F00A0319FD
:104ED600F10A700871040319712F722F9B2FF501C7
:104EE600F50A7E2F0130F035F10D890B762F013052
:104EF600F4007408F507F11F812F822F752F7108B2
:104F06007302031D882F70087202031C8B2F8C2FCF
:104F1600902F7008F2027108F33B0130F136F00C65
:104F2600890B912F0130F502031D9A2F9B2F822F9B
:104F3600760803199F2FA02FA52FF209F309F20A6D
:104F46000319F30A7308F1007208F00008007208EA
:104F56000319AE2FAF2FB42F7208031DB32FB42F32
:104F6600B92F700880310420A731FF2F7208033E45
:104F7600860001308700160001040319C32FC42FD1
:104F8600E32F7208033E860001308700403FF3009E
:104F9600413FF400720A860001308700403FF50069
:104FA600413FF6007608803AF7007408803A7702A7
:104FB600031DDF2F730875020318E22FE32FFF2F5F
:104FC6007008F3007208860001308700720A8400B8
:104FD6000130850000080107F400740886000130DE
:104FE600870073088100720A86000130870001304D
:104FF600810741310318810A08000A340A340D3446
:105006000A344D3447343834313432344D344F3425
:105016004E34493454344F345234203456343134B7
:105026002E34303430340D340A34003425346434AC
:105036002C34253435342E343334663456340D341A
:105046000A34003449344E34463400344E34413444
:105056004E34003469346E34663400346E34613450
:0A5066006E3400346C3466340034FC
:020000040001F9
:08000E00EC3FF33FFF3FFF3F11
:00000001FF
