:10000000803102288731ED2F08002200540820009B
:10001000A500220053082000A4002200520820005E
:10002000A300220051082000A2007308A500720856
:10003000A4007108A3007008A2002208F40023089D
:10004000F5002408F6002508F7001730F736F60CFF
:10005000F50CF40C890B2628FF307405A000003045
:100060007505A10020082104031D372838285928C8
:100070002208F4002308F5002408F6002508F700FC
:100080000130F435F50DF60DF70D890B4128770891
:10009000760475047404031D4E284F28542802303A
:1000A000F0000030F10083280330F0000030F10050
:1000B0008328200A2104031D5E285F287F28220848
:1000C000F4002308F5002408F6002508F70009309D
:1000D000F435F50DF60DF70D890B682877087604D1
:1000E00075047404031975287728013078280030C6
:1000F000F800F9017808F0007908F100832804304D
:10010000F0000030F10008002100C500C301C40167
:100110002308D9002208D8002108D7002008D600DB
:1001200059082000BD00210058082000BC00210013
:1001300057082000BB00210056082000BA000030FC
:10014000C1000030C0000030BF000030BE009B3155
:10015000442380310318AD28AE28C7280130210080
:10016000C3000030C4005908F3005808F2005708D3
:10017000F1005608F0009231B2228031730821005C
:10018000D9007208D8007108D7007008D600210085
:10019000DC01DD01220058082100C90022005708B7
:1001A0002100C80043084404031DD728D828DD28AF
:1001B00022005B1DDC28DD28FB28210043084404C5
:1001C000031DE328E428E9282B30A9000030AA0009
:1001D000ED282D30A9000030AA002908A500250827
:1001E0002400A00001302100DC070030DD3DFF309D
:1001F000C807FF30C93D21005908F3005808F20034
:100200005708F1005608F000803105208031700356
:100210007104031D0C290D295F2921002408BF3E0C
:10022000A500FF3003180030A600003026021A3067
:1002300003192502031C1D291F2901302029003024
:10024000A700A8012708AB002808AC002B082C0445
:1002500003192B292C2936292530F000A830F1006C
:100260005C08203E9831002080313F292D30F0007D
:10027000A830F1005C08203E983100208031FD302C
:100280002100C807FF30C93D2030A5002508200007
:10029000A400210049082000A600210048082000F1
:1002A000A500210045089A3131228031200025081F
:1002B0002100A100200024082100A000EC2F210033
:1002C0005908F3005808F2005708F1005608F000EA
:1002D00080310520803170087104031D7029712957
:1002E000C32921002408BF3EA500FF3003180030B9
:1002F000A600003026021A3003192502031C8129AA
:100300008329013084290030A700A8012708AD0007
:100310002808AE002D082E0403198F2990299A2948
:100320002930F000A830F1005C08203E9831002010
:100330008031A3293130F000A830F1005C08203E64
:10034000983100208031FD302100C807FF30C93DC1
:100350002030A50025082000A40021004908200025
:10036000A600210048082000A500210045089A3178
:1003700031228031200025082100A100200024081E
:100380002100A000EC2F3F302100E1008030E00090
:100390000030DF000030DE00DA01DB015908F30035
:1003A0005808F2005708F1005608F0000030F70036
:1003B0000030F6000030F5000030F40099313A21A9
:1003C00080310318E429E529A92A162A41302000A2
:1003D000A3002030A2000030A1000030A0002100C6
:1003E00061082000A700210060082000A60021006D
:1003F0005F082000A50021005E082000A4008A31CB
:100400002D228031200023082100E1002000220855
:100410002100E000200021082100DF00200020084A
:100420002100DE000130DA070030DB3D21005908F1
:100430002000BD00210058082000BC002100570802
:100440002000BB00210056082000BA004130A30064
:100450002030A2000030A1000030A000210061087F
:100460002000A700210060082000A60021005F08EE
:100470002000A50021005E082000A4008A312D2262
:10048000803120002308C1002208C0002108BF00DD
:100490002008BE009B31442380310318502A512A82
:1004A000E629822A41302000C5002030C4000030F7
:1004B000C3000030C200210061082000C9002100F3
:1004C00060082000C80021005F082000C70021004C
:1004D0005E082000C6008831792080312000450860
:1004E0002100E100200044082100E0002000430832
:1004F0002100DF00200042082100DE00FF30DA0783
:10050000FF30DB3D210059082000BD0021005808C4
:100510002000BC00210057082000BB002100560825
:100520002000BA00210061082000C10021006008FD
:100530002000C00021005F082000BF0021005E08ED
:100540002000BE009B3144238031031CA82AA92A25
:10055000522A21002408A500A6012508F600260835
:10056000F70098316620803176082100A70027081F
:10057000CB004B08A5002508CA0067304B06031DB9
:10058000C22AC32AEC2A220059085A04031DC92A88
:10059000CA2ACE2A0130D9000030DA005A08803A3F
:1005A0002100A50080302502031DD92A0130220038
:1005B00059020318DC2ADD2AE32A06302100C6008E
:1005C0000030C700F22A22005A082100C70022008A
:1005D00059082100C600F22A2200DA1BF02AF12A6B
:1005E000DD2AE32A67304B06031DF72AF82A252B5C
:1005F0005B08803AA5007F302502031D012BFC30EB
:100600005A02031C042B052B202B21004608FF3E19
:10061000A500FF30473DA6002608803AA7005B08EA
:10062000803A2702031D162B5A082502031C192B9A
:100630001A2B202B66302100A5002508CA00252B87
:1006400065302100A5002508CA004708BC004608FF
:10065000BB0067304B06031D2E2B2F2B392B66302A
:100660004A06031D342B352B3D2BDB1F382B392B32
:100670003D2B0130BB070030BC3D66304A06031DF0
:10068000422B432B5B2BDB1F462B472B512B3F3041
:10069000E1008030E0000030DF000030DE00DA01F1
:1006A000DB0167304B060319562B572B5B2B5A087F
:1006B000BB075B08BC3DD401D5015908CF005808E1
:1006C000CE005708CD005608CC006108C000600875
:1006D000BF005F08BE005E08BD00452C2100610818
:1006E0002000C500210060082000C40021005F0830
:1006F0002000C30021005E082000C20021004F0836
:100700002000C90021004E082000C80021004D082B
:100710002000C70021004C082000C6008831792045
:10072000803120004508DF004408DE004308DD007A
:100730004208DC009E311426803120005F08210031
:10074000D30020005E082100D20020005D082100B7
:10075000D10020005C082100D00053082000DF00F9
:10076000210052082000DE00210051082000DD0099
:10077000210050082000DC00883104208031200056
:100780005D082100C20020005C082100C100530860
:100790002000A700210052082000A60021005108D7
:1007A0002000A500210050082000A40021006108BD
:1007B0002000A300210060082000A20021005F08A3
:1007C0002000A10021005E082000A0008A312D2217
:1007D000803120002308BD002208BC002108BB0096
:1007E0002008BA0021004F082000C10021004E0857
:1007F0002000C00021004D082000BF0021004C084F
:100800002000BE00A731BF27803120003D08210015
:10081000CF0020003C082100CE0020003B08210032
:10082000CD0020003A082100CC0041302000C50056
:100830002030C4000030C3000030C2002100610835
:100840002000C900210060082000C80021005F08C6
:100850002000C70021005E082000C60088317920F2
:100860008031200045082100E100200044082100DB
:10087000E000200043082100DF00200042082100A2
:10088000DE000130D4070030D53D5508803AA50080
:100890003C08803A2502031D4F2C3B085402031CE0
:1008A000522C532C6E2B40302000A300A030A2000D
:1008B0000030A1000030A000210061082000A70046
:1008C000210060082000A60021005F082000A5008C
:1008D00021005E082000A4008A312D2280312000F2
:1008E00023082100D300200022082100D20020008C
:1008F00021082100D100200020082100D0004F084D
:100900002000BD0021004E082000BC0021004D0841
:100910002000BB0021004C082000BA002100530831
:100920002000C100210052082000C0002100510811
:100930002000BF00210050082000BE009B3144234E
:1009400080310318A42CA52CAF2C00302100D3003B
:100950000030D2000030D1000030D000D42C210073
:100960004F08F3004E08F2004D08F1004C08F0006B
:100970005308F7005208F6005108F5005008F4003B
:1009800099313A218031031CC62CC72CD42C21006C
:100990004118CB2CCC2CD42C0030D3000030D2000A
:1009A0000030D1000030D00021005308F30052087D
:1009B000F2005108F1005008F0005908F7005808FB
:1009C000F6005708F5005608F4009531C12580312E
:1009D00073082100CF007208CE007108CD007008A6
:1009E000CC004F082000BD0021004E082000BC00B4
:1009F00021004D082000BB0021004C082000BA0057
:100A00004130A3002030A2000030A1000030A0003F
:100A1000210040082000A70021003F082000A60078
:100A200021003E082000A50021003D082000A40070
:100A30008A312D22803120002308C1002208C00005
:100A40002108BF002008BE009B3144238031031CD5
:100A50002A2D2B2D662D01302100DA070030DB3DD9
:100A600041302000A3002030A2000030A10000305F
:100A7000A000210040082000A70021003F0820001E
:100A8000A60021003E082000A50021003D0820000E
:100A9000A4008A312D228031200023082100C000CB
:100AA000200022082100BF00200021082100BE00F4
:100AB000200020082100BD0066304A06031D612D7C
:100AC000622D662D0130BB070030BC3D210040087F
:100AD000E1003F08E0003E08DF003D08DE00653031
:100AE0004A060319742D752D7A2D5B08BA005A0831
:100AF000B9007C2DB901BA01B701B801B501B60141
:100B0000D401D501C72E210061082000C5002100B5
:100B100060082000C40021005F082000C3002100FD
:100B20005E082000C20021004F082000C9002100FB
:100B30004E082000C80021004D082000C7002100F9
:100B40004C082000C60088317920803120004508FB
:100B5000DF004408DE004308DD004208DC009E316F
:100B60001426803120005F082100D30020005E0899
:100B70002100D20020005D082100D10020005C0887
:100B80002100D00053082000DF002100520820007F
:100B9000DE00210051082000DD0021005008200067
:100BA000DC0088310420803120005D082100C20073
:100BB00020005C082100C10022005B1AE02DE12D1D
:100BC000F72D210041084204031DE72DE82DF72DE4
:100BD00067304B06031DED2DEE2DF72DBA1FF12DBD
:100BE000F22DF72D0130B5070030B63D452E21001E
:100BF00037083804031DFD2DFE2D2D2EBA1F012EA2
:100C0000022E2D2E2E30A5005C08203E86000230DC
:100C10008700250881000130DC070030DD3DFF3012
:100C2000C807FF30C93D0130B7000030B8002D2E95
:100C30003030A5005C08203E860002308700250881
:100C400081000130DC070030DD3DFF30C807FF3098
:100C5000C93DFF30B507FF30B63D35083604031DEA
:100C6000322E332E182E4108303EA5005C08203E5F
:100C7000860002308700250881000130DC07003043
:100C8000DD3DFF30C807FF30C93D53082000A700F5
:100C9000210052082000A600210051082000A500D4
:100CA000210050082000A400210061082000A300BA
:100CB000210060082000A20021005F082000A100A0
:100CC00021005E082000A0008A312D228031200002
:100CD0002308BD002208BC002108BB002008BA0080
:100CE00021004F082000C10021004E082000C00054
:100CF00021004D082000BF0021004C082000BE004C
:100D0000A731BF27803120003D082100CF002000FF
:100D10003C082100CE0020003B082100CD0020002F
:100D20003A082100CC0041302000C5002030C4002A
:100D30000030C3000030C200210061082000C9005B
:100D4000210060082000C80021005F082000C700C3
:100D500021005E082000C600883179208031200003
:100D600045082100E100200044082100E0002000A7
:100D700043082100DF00200042082100DE00FF3090
:100D8000B907FF30BA3D0130D4070030D53D5508D2
:100D9000803AA5003C08803A2502031DD12E3B086D
:100DA00054020318D42ED52EE32E21005D08803A7C
:100DB000A50080302502031DDF2E4B305C02031C92
:100DC000E22EE32E832D210037083804031DE92E7F
:100DD000EA2EFD2E22005B1EEE2EEF2EFD2E2E3073
:100DE0002100A5005C08203E86000230870025080F
:100DF00081000130DC070030DD3D21005C08203E31
:100E0000860002308700810165304A06031D092FE4
:100E10000A2FD12F4F30D4000030D5005408203E87
:100E20008600023087008101C301C401DB1F192F36
:100E30001A2F232F0130C3000030C400DA09DB0968
:100E4000DA0A0319DB0A0230C6000030C7005B2F44
:100E5000FF302100D407FF30D53D0A30F0000030CC
:100E6000F1005B08F3005A08F200993188218031C3
:100E70007008303E2100A5005408203E8600023054
:100E80008700250881000A30F0000030F1005B087F
:100E9000F3005A08F2009A31E522803171082100EE
:100EA000DB007008DA00FF30C607FF30C73DFF30B7
:100EB000C807FF30C93D5A085B04031D602F612F2E
:100EC000282F4708803AA50080302502031D6A2F8D
:100ED0000130460203186D2F6E2F282FFF3021009E
:100EE000D407FF30D53D43084404031D782F792FE4
:100EF0007E2F2B30AF000030B000822F2D30AF009E
:100F00000030B0002F08A5005408203E86000230B3
:100F1000870025088100FF30C807FF30C93DFF303A
:100F2000D407FF30D53D2408BF3EA500FF3003188D
:100F30000030A600003026021A3003192502031CD7
:100F4000A22FA42F0130A52F0030A700A801270849
:100F5000B3002808B40033083404031DB02FB12FA8
:100F6000B62F6530B1000030B200BA2F4530B10065
:100F70000030B2003108A5005408203E860002303F
:100F8000870025088100FF30C807FF30C93D54089D
:100F9000203EF0000230F1005C08203E9831002035
:100FA000803120302100A50025082000A400210068
:100FB00049082000A600210048082000A5002100C3
:100FC00045089A3131228031200025082100A100F6
:100FD000200024082100A00008004D3084000130CA
:100FE00085001330A631D0268731203084000230AE
:100FF00085005030A631D0268731200094312D2C29
:101000001630210097000800031020005E0D5F0DD0
:10101000E0006008E6006608031D0F281028192864
:101020000030DF000030DE000030DD000030DC008A
:1010300078285C08E0005D08E1005E08E2005F08D7
:10104000E3001F30E336E20CE10CE00C890B2228B0
:101050006008E4006408E500DE17FF30DC05FF30BF
:10106000DD05FF30DE050030DF059630E602E61FC5
:101070003A283B2853286608803A973E03184128AF
:101080004228432810280130DF36DE0CDD0CDC0C52
:10109000890B44280130E0006008E607031D512851
:1010A00052284328682820306602031C58285928F3
:1010B000632810280130DC35DD0DDE0DDF0D890BD6
:1010C0005B280130E6026608031D672868285A2855
:1010D000650803196C286D287828DC09DD09DE090C
:1010E000DF09DC0A0319DD0A0319DE0A0319DF0A26
:1010F0000800200049088039CA004A08D300493551
:10110000CA004A08DA00C81F8628872888285A1487
:101110005A0803198C288D289D285A0A031D9128E6
:1011200092289A280030C9000030C8000030C7005B
:101130000030C600C817C901A5280030C90000301A
:10114000C8000030C7000030C60045088039CA001A
:101150004A08D3064535CA004A08DB00C41FB12837
:10116000B228B3285B145B080319B728B828C8282D
:101170005B0A031DBC28BD28C5280030C50000300F
:10118000C4000030C3000030C200C417C501D0281D
:101190000030C5000030C4000030C3000030C20081
:1011A0004508440443044204031DD728D828F128E5
:1011B0000030C9000030C8000030C7000030C60051
:1011C0008030C8047F30C9045308CA004A08C904E3
:1011D0004908C5004808C4004708C3004608C200C3
:1011E0002C2A5A08031DF528F628FF280030C500D0
:1011F0000030C4000030C3000030C2002C2A5A085E
:10120000CA00CB014B08CD005B084A02CC00031C8E
:10121000CD034C087F3ED40000304D3DD500490839
:10122000D2004808D1004708D0004608CF0000305F
:10123000C9000030C8000030C7000030C6000030D0
:10124000D9000030D8000030D7000030D600DB01D4
:1012500067295B0803192D292E2948290130CF352C
:10126000D00DD10DD20D890B2F290130C635C70DF8
:10127000C80DC90D890B3629D91F3F29402941299D
:1012800046140130D635D70DD80DD90D890B42291A
:1012900045085202031D562944085102031D5629D0
:1012A00043085002031D562942084F02031C5929C6
:1012B0005A29632959174208CF024308D03B4408F2
:1012C000D13B4508D23B0130CA004A08DB071A303F
:1012D0005B02031C6C296D29292952085104500412
:1012E0004F040319742975298E2956148E2901304B
:1012F000C635C70DC80DC90D890B7829D91F81299D
:101300008229832946140130D635D70DD80DD90D41
:10131000890B8429FF30D407FF30D53DC81F9129A0
:1013200092297729DB01D91F96299729B329FF3004
:101330005605CA00FF305705CB00FF305805CC00DA
:101340007F305905CD004D084C044B044A04031965
:10135000AA29AB29AE29DB01DB0AB329461CB12936
:10136000B229B329AB295B080319B729B829E029A9
:101370000130C6070030C73D0030C83D0030C93DD0
:10138000491CC329C429E0294608CA004708CB00E4
:101390004808CC004908CD000130CE00CD37CC0C38
:1013A000CB0CCA0CCE0BCE294D08C9004C08C80086
:1013B0004B08C7004A08C6000130D4070030D53DAD
:1013C0005508803ACA0080304A02031DE929FF30DF
:1013D0005402031CEC29ED29FA29FF302000D40027
:1013E0000030D5000030C9000030C8000030C70010
:1013F0000030C60020005508803ACA0080304A02FA
:10140000031D042A013054020318072A082A142A4B
:101410002000D401D5010030C9000030C8000030E0
:10142000C7000030C600D30120005408CA004A0893
:10143000DA005A1C1C2A1D2A1F2AC817232A7F30AB
:10144000CA004A08C8055A36CA004A08C9005308E3
:10145000CA004A08C904E828080020002308803987
:10146000A8002808AD002335A8002808B300A21F53
:101470003A2A3B2A3C2A331433080319402A412ACA
:10148000502A330A031D452A462A4E2A0030A3005B
:101490000030A2000030A1000030A000A217582A9E
:1014A0000030A3000030A2000030A1000030A000F6
:1014B00027088039A8002808AD062735A800280885
:1014C000B200A61F642A652A662A3214320803195C
:1014D0006A2A6B2A7A2A320A031D6F2A702A782A0E
:1014E0000030A7000030A6000030A5000030A400A6
:1014F000A617822A0030A7000030A6000030A50001
:101500000030A40032080319862A872A8C2A33085F
:10151000031D8B2A8C2A952A0030A3000030A200DC
:101520000030A1000030A000832C2008A80028086B
:10153000F0002608983143208A3171082000B90054
:101540007008B8003808A800A901AA01AB012B084F
:10155000B1002A08B0002908AF002808AE003908F9
:10156000A800A901AA01AB012B08B7002A08B60000
:101570002908B5002808B4002108A8002808F000B0
:101580002508983143208A3171082000B90070087D
:10159000B8003808A800A901AA01AB012808AE07C5
:1015A0002908AF3D2A08B03D2B08B13D3908A800F5
:1015B000A901AA01AB012808B4072908B53D2A08EA
:1015C000B63D2B08B73D2208A8002808F0002408E3
:1015D000983143208A3171082000B9007008B800A2
:1015E0003808A800A901AA01AB012808AE072908FC
:1015F000AF3D2A08B03D2B08B13D3908A800A9012C
:10160000AA01AB012808B4072908B53D2A08B63D50
:101610002B08B73D0830AE35AF0DB00DB10D890BBD
:101620000B2B2108A8002808F0002408983143203B
:101630008A3171082000B9007008B8003808AE0778
:101640003908AF3D0030B03DB13D2008A800280862
:10165000F0002508983143208A3171082000B90034
:101660007008B8003808AE073908AF3D0030B03D0B
:10167000B13D0830AE35AF0DB00DB10D890B3A2B31
:101680002008A8002808F0002408983143208A3157
:1016900071082000B9007008B8003808AE07390892
:1016A000AF3D0030B03DB13D2108A8002808F00052
:1016B0002608983143208A3171082000B90070084B
:1016C000B8003808B4073908B53D0030B63DB73D1D
:1016D0002208A8002808F0002508983143208A3104
:1016E00071082000B9007008B8003808B40739083C
:1016F000B53D0030B63DB73D2208A8002808F000EF
:101700002608983143208A3171082000B9007008FA
:10171000B8003808A8003908A900AA01AB010830B0
:10172000A835A90DAA0DAB0D890B902B2808B4077D
:101730002908B53D2A08B63D2B08B73D2E08A8005C
:101740002F08A9003008AA003108AB001830AB36CA
:10175000AA0CA90CA80C890BA72B2808B4072908E8
:10176000B53D2A08B63D2B08B73D0830AE35AF0D64
:10177000B00DB10D890BB62B33083207A800A901B3
:10178000A90D2808823EB800FF30293DB900DF2BA3
:101790000130B435B50DB60DB70D890BC92BB11F8E
:1017A000D22BD32BD42B34140130AE35AF0DB00D6A
:1017B000B10D890BD52BFF30B807FF30B93DB61FEF
:1017C000E22BE32BC82BB201B11FE72BE82B042C33
:1017D000FF302E05A800FF302F05A900FF3030058F
:1017E000AA007F303105AB002B082A042904280405
:1017F0000319FB2BFC2BFF2BB201B20A042C341C67
:10180000022C032C042CFC2B32080319082C092C65
:10181000312C0130B4070030B53D0030B63D00300A
:10182000B73D371C142C152C312C3408A800350872
:10183000A9003608AA003708AB000130AC00AB376E
:10184000AA0CA90CA80CAC0B1F2C2B08B7002A085B
:10185000B6002908B5002808B4000130B8070030E8
:10186000B93D3908803AA80080302802031D3A2C7F
:10187000FF303802031C3D2C3E2C482C7F302000CA
:10188000B7008030B6000030B5000030B400772CCF
:1018900020003908803AA80080302802031D522C0D
:1018A000013038020318552C562C612C00302000D2
:1018B000B7000030B6000030B5000030B400AD0114
:1018C000772C20003808A8002808B300FF30B405A2
:1018D000FF30B5057F30B6050030B705331C712CDD
:1018E000722C732CB6173336A8002808B7002D08C1
:1018F000A8002808B7043708A3003608A200350856
:10190000A1003408A00008002200B60021006208EF
:10191000860001308700403FE400413FE500640855
:101920008400650885001200253A031D982C992C27
:10193000D82F6208860001308700013081074131CD
:101940000318810A2200D701D801DB01DC01FF3036
:10195000D900FF30DA0021006208860001308700DC
:10196000403FE400413FE5006408840065088500CD
:1019700012002A3A031DBD2CBE2CE12C6208860001
:10198000013087000130810741310318810A630863
:101990008600013087000108840001308500023094
:1019A0008107003F2200D700013FD800D81FD92C63
:1019B000DA2C2A2D5B14D709D809D70A0319D80ABB
:1019C0002A2D6208860001308700403FF600413F23
:1019D000F7009C317B248C3177082200D8007608F0
:1019E000D700FC2C210062088600013087000130FE
:1019F000810741310318810A210062088600013005
:101A00008700403FE400413FE5006408840065082A
:101A100085000008D03EE600FF3003180030E700E4
:101A2000003067020A3003196602031C182D1A2DB4
:101A300001301B2D0030E800E90168082200A800F1
:101A4000210069082200A90028082904031D292D66
:101A50002A2DF22C21006208860001308700403FC9
:101A6000E400413FE5006408840065088500120039
:101A70002E3A031D3C2D3D2DBE2D2200D901DA0149
:101A80002100620886000130870001308107413162
:101A90000318810A6208860001308700403FE40095
:101AA000413FE500640884006508850012002A3A79
:101AB000031D5B2D5C2D752D6208860001308700AB
:101AC0000130810741310318810A63088600013023
:101AD0008700010884000130850002308107003F43
:101AE0002200D900013FDA00BE2D620886000130D5
:101AF0008700403FF600413FF7009C317B248C314A
:101B000077082200DA007608D900902D21006208BB
:101B10008600013087000130810741310318810AB6
:101B200021006208860001308700403FE400413F09
:101B3000E50064088400650885000008D03EE600E2
:101B4000FF3003180030E700003067020A30031945
:101B50006602031CAC2DAE2D0130AF2D0030E80025
:101B6000E90168082200AA00210069082200AB00F0
:101B70002A082B04031DBD2DBE2D862D21006208D1
:101B8000860001308700403FE400413FE5006408E3
:101B90008400650885000008E600E7016608F60095
:101BA0006708F700983166208C3176082100E8003C
:101BB00068082200B20032080319DF2DE02D252E1F
:101BC00021006208860001308700403FE400413F69
:101BD000E50001306407840065080318650A850084
:101BE0000008E600E7016608F6006708F70098318C
:101BF00066208C3176082100E80068082200B300D6
:101C000033080319042E052E252E210062088600B4
:101C100001308700403FE400413FE50002306407A7
:101C2000840065080318650A85000008E600E701DE
:101C30006608F6006708F700983166208C31760850
:101C40002100E80068082200B40021006208860034
:101C500001308700403FE400413FE5006408840014
:101C6000650885001200643A0319372E382E4A2E73
:101C70006208860001308700403FE400413FE500F4
:101C800064088400650885001200693A031D492E26
:101C90004A2E9E2E6208860001308700013081079F
:101CA00041310318810A630886000130870001086A
:101CB00084000130850002308107003FE400013FCD
:101CC000E50064082200A000210065082200A100B0
:101CD000890D893B8909A200A300A400A500A600E4
:101CE000A70020082000B000220021082000B10039
:101CF000220022082000B200220023082000B300A6
:101D0000220024082000B400220025082000B5008D
:101D1000220026082000B600220027082000B70075
:101D2000220036089231BD228C312000310821007A
:101D3000E300200030082100E200FF2F663022007F
:101D40003206031DA42EA52EF42E21006208860063
:101D500001308700403FE400413FE5006408840013
:101D6000650885000008E60066082200B50021002D
:101D70006208860001308700013081074131031875
:101D8000810A630886000130870001088400013061
:101D9000850004308107003F2200AE00013FAF0004
:101DA000023FB000033FB10031082100A300220030
:101DB00030082100A20022002F082100A1002200EB
:101DC0002E082100A000220035082100E40064084C
:101DD000A40022003608803184208C3121002108A3
:101DE000E3002008E200FF2F3530F000A830F100BA
:101DF0000230F2000030F30032309A318A228C3106
:101E000070087104031D052F062F9D2F2100620805
:101E1000860001308700403FE400413FE50001308B
:101E20006407840065080318650A85000008E60059
:101E300066082200B5002100620886000130870094
:101E4000403FE400413FE5006408840065088500E8
:101E50000008BF3EE600FF3003180030E700003006
:101E600067021A3003196602031C372F392F01301D
:101E70003A2F0030E800E90168082200AC00210098
:101E800069082200AD002C082D040319482F492FA2
:101E90005E2F21006308860001308700010884005E
:101EA0000130850004308107003F2200AE00013F71
:101EB000AF00023FB000033FB100722F2100630862
:101EC000860001308700010884000130850004305D
:101ED0008107003F2200AE00013FAF00023FB0008B
:101EE000033FB10021006208860001308700023004
:101EF000810741310318810A220031082100A30023
:101F0000220030082100A20022002F082100A10099
:101F100022002E082100A000220035082100E40044
:101F20006408A40022003608803184208C3121000E
:101F30002108E3002008E200FF2F2100620886004C
:101F400001308700403FE400413FE5006408840021
:101F5000650885001200253A031DAF2FB02FCC2F46
:101F60006208860001308700013081074131031883
:101F7000810A2530F0000030F100220036082100EF
:101F8000E4006408F2009931DB218C31013021003A
:101F9000E2000030E300FF2F620886000130870076
:101FA0000130810741310318810AE201E301FF2F6B
:101FB0006208860001308700403FE400413FE500B1
:101FC00064088400650885000008E600E7016608EB
:101FD000F0006708F100220036082100E8006808D8
:101FE000F2009931DB218C3121006208860001303A
:101FF00087000130810741310318810AC62F08008C
:102000009034013494340134983401349B340134D5
:102010009F340134A3340134A7340134AB34013488
:10202000AF340134B3340134B7340134BB34013438
:10203000C0340134C4340134C8340134CC340134E4
:10204000D1340134D5340134D9340134DE3401348F
:10205000E2340134E7340134EC340134F034013437
:10206000F5340134FA340134FE34013403340234DB
:10207000083402340D34023412340234173402347A
:102080001C34023421340234263402342B3402341A
:1020900030340234363402343B34023440340234B7
:1020A000463402344B340234513402345634023450
:1020B0005C34023462340234683402346D340234E5
:1020C00073340234793402347F3402348534023478
:1020D0008B34023491340234973402349E34023407
:1020E000A4340234AA340234B1340234B734023492
:1020F000BE340234C4340234CB340234D234023419
:10210000D9340234DF340234E6340234ED3402349C
:10211000F4340234FC340234033403340A34033418
:102120001134033419340334203403342834033491
:102130002F340334373403343F3403344734033407
:102140004E340334563403345E340334673403347A
:102150006F340334773403347F34033488340334E6
:102160009034033499340334A2340334AA3403344E
:10217000B3340334BC340334C5340334CE340334B1
:10218000D7340334E1340334EA340334F33403340E
:10219000FD34033406340434103404341A34043463
:1021A000243404342E3404343834043442340434B3
:1021B0004C34043457340434613404346C340434FF
:1021C00076340434813404348C3404349734043445
:1021D000A2340434AD340434B8340434C434043484
:1021E000CF340434DB340434E7340434F2340434BC
:1021F000FE3404340A3405341634053423340534EB
:102200002F3405343C340534483405345534053412
:10221000623405346F3405347C3405348934053434
:1022200096340534A4340534B1340534BF34053450
:10223000CD340534DB340534E9340534F734053462
:102240000634063414340634233406343234063467
:1022500041340634503406345F3406346E34063468
:102260007E3406348D3406349D340634AD34063461
:10227000BD340634CD340634DE340634EE34063450
:10228000FF34063410340734213407343234073431
:10229000433407345534073467340734783407340B
:1022A0008A3407349D340734AF340734C1340734DB
:1022B000D4340734E7340734FA3407340D3408349F
:1022C0002134083434340834483408345C34083455
:1022D000703408348434083499340834AE34083403
:1022E000C3340834D8340834ED34083403340934A2
:1022F000183409342E340934443409345B34093435
:1023000071340934883409349F340934B6340934BB
:10231000CD340934E5340934FD34093415340A3434
:102320002D340A3446340A345F340A3478340A349B
:1023300091340A34AA340A34C4340A34DE340A34F8
:10234000F8340A3413340B342D340B3448340B3442
:1023500063340B347F340B349A340B34B6340B347F
:10236000D3340B34EF340B340C340C3429340C34A8
:1023700046340C3464340C3482340C34A0340C34C1
:10238000BE340C34DD340C34FC340C341B340D34CA
:102390003B340D345B340D347B340D349B340D34BD
:1023A000BC340D34DD340D34FF340D3420340E34A0
:1023B00042340E3465340E3487340E34AA340E346D
:1023C000CE340E34F1340E3415340F343A340F3425
:1023D0005F340F3484340F34A9340F34CF340F34C6
:1023E000F5340F341B341034423410346934103453
:1023F00091341034B9341034E13410340A341134C7
:10240000333411345C34113486341134B034113423
:10241000DB34113406341234313412345D34123466
:1024200089341234B6341234E33412341134133490
:102430003F3413346D3413349C341334CB3413349D
:10244000FB3413342B3414345B3414348D3414348F
:10245000BE341434F0341434233415345534153464
:1024600089341534BD341534F1341534263416341A
:102470005B34163491341634C8341634FF341634B1
:10248000363417346E341734A6341734DF34173427
:1024900019341834533418348E341834C934183479
:1024A00004341934413419347E341934BB341934AA
:1024B000F934193438341A3477341A34B7341A34B6
:1024C000F7341A3438341B3479341B34BC341B349D
:1024D000FF341B3442341C3486341C34CB341C345B
:1024E00010341D3456341D349D341D34E4341D34F1
:1024F0002C341E3475341E34BE341E3408341F345C
:1025000053341F349F341F34EB341F343834203499
:1025100086342034D43420342334213473342134A9
:10252000C33421341534223467342234BA3422348B
:102530000E34233462342334B73423340D3424343A
:1025400064342434BC342434143425346E342534B7
:10255000C8342534233426347F342634DC342634FE
:102560003934273473087204710470040319B92ACA
:10257000BA2ABC2A8030F30608002000BD003008CB
:10258000C4003108C5003208C6003308C70034084B
:10259000C8003508C9003608CA003708CB004430E7
:1025A000860000308700473FB800B81BD82ADA2AD7
:1025B0000130DB2A00302000B900BA013908C2001E
:1025C0003A08C300420843040319E72AE82A062B05
:1025D000C409C509C609C709C809C909CA09CB0977
:1025E000C40A031D062BC50A031D062BC60A031DBC
:1025F000062BC70A031D062BC80A031D062BC90A92
:10260000031D062BCA0A031D062BCB0A2200DA1B68
:102610000A2B0B2B0F2BFD30DB05FF30DC055A0896
:10262000803A2000B80080303802031D1A2B013098
:102630002200590203181D2B1E2B242B01302000D1
:10264000BE000030BF002C2B22005A082000BF0023
:10265000220059082000BE00220058082000C100B6
:10266000220057082000C00042084304031D392BF4
:102670003A2B3F2B22005B1D3E2B3F2B442BFF3080
:102680002000C007FF30C13D4F302000CC0000309B
:10269000CD002400EF01B52BFF302000CC07FF3028
:1026A000CD3D0A30A000A101A201A301A401A50112
:1026B000A601A7014408A8004508A9004608AA00E9
:1026C0004708AB004808AC004908AD004A08AE0016
:1026D0004B08AF009D312A25923120002108F400DB
:1026E0002008F300A7316C2792317308303E200098
:1026F000B8004C08203E8600023087003808810070
:10270000FF30BE07FF30BF3DFF30C007FF30C13D87
:102710000A30A000A101A201A301A401A501A60104
:10272000A7014408A8004508A9004608AA004708D0
:10273000AB004808AC004908AD004A08AE004B08A1
:10274000AF009E31FF26923120002008C4002108EE
:10275000C5002208C6002308C7002408C8002508B1
:10276000C9002608CA002708CB0020004D08803A7F
:10277000B80080303802031DBF2B01304C02031C0F
:10278000C22BC32BF02B2000440845044604470409
:10279000480449044A044B04031DCF2BD02B4C2B77
:1027A0003F08803AB80080303802031DD92B013031
:1027B0003E020318DC2BDD2B4C2B20004108803A15
:1027C000B80080303802031DE72B01304002031CA3
:1027D000EA2BEB2BF02B2200DB18EF2BF02B4C2BF2
:1027E000200042084304031DF62BF72BFC2B22008C
:1027F0005B1DFB2BFC2B192CFF302000CC07FF307E
:10280000CD3D42084304031D062C072C0C2C2B3015
:10281000BB000030BC00102C2D30BB000030BC00D1
:102820003B08B8004C08203E86000230870038087C
:10283000810020004C08203EB8003808A400410860
:10284000A6004008A5003D089A31312292312000AF
:102850002508B1002408B00008002300C001C10110
:102860004030B7003C30B6002830B500F630B40038
:10287000A631FA26943102302200CC004530CB003C
:10288000A930890B412CCB0B412CCC0B412C0032B5
:102890000030F100A830F200A7310D27943100304C
:1028A0002300BF000030BE000030BD000030BC007F
:1028B000C401C5010230A7312427943170082300D8
:1028C000BC077108BD3D0030BE3DBF3D0130C407AF
:1028D0000030C53D4508803A2200CB0083304B02D2
:1028E000031D752CE83023004402031C782C792C3E
:1028F0005A2C3B302000A300A030A2002830A100B9
:102900000A30A00023003F08F3003E08F2003D0813
:10291000F1003C08F00001309B31CF239431730863
:102920002000A7007208A6007108A5007008A40086
:102930008A312D229431200023082300BB0020007F
:1029400022082300BA00200021082300B90020003B
:1029500020082300B80044302000C5007A30C400AD
:102960000030C3000030C20023003B082000C90033
:1029700023003A082000C800230039082000C700BF
:10298000230038082000C6008831792094312000C7
:1029900045082300C900200044082300C800200087
:1029A00043082300C700200042082300C600370860
:1029B0002000C100230036082000C0002300350895
:1029C0002000BF00230034082000BE002300490877
:1029D0002000BD00230048082000BC002300470859
:1029E0002000BB00230046082000BA00A731BF2703
:1029F000943120003D08C9003C08C8003B08C700CE
:102A00003A08C6003A30C5008330C4001230C30013
:102A10006F30C20088317920943120004508DF00F2
:102A20004408DE004308DD004208DC008831042051
:102A3000943120005D082300CB0020005C082300B7
:102A4000CA00CB1F242D252D282DCA01CB01352DE1
:102A500001304B02593003194A02031C302D312D2D
:102A6000352D5830CA000130CB004B0885004A088C
:102A700084008435850D003084079030853D003F0B
:102A8000C200013FC30019302200BA00A830BB00C9
:102A9000230043082200BD00230042082200BC009E
:102AA000230049082200C100230048082200C0007A
:102AB000230047082200BF00230046082200BE0072
:102AC000A0309831DA209431A030F1000130F200CA
:102AD000A7310D279431023023004302BC30031983
:102AE00042020318742D752D792D22008E140E10BC
:102AF0007C2D22008E100E1420000E19802D812DA9
:102B0000AE2D01302300C0070030C13D0330400628
:102B10004104031D8C2D8D2DB12DBB30F300A3304E
:102B2000F200D730F1000A30F0004908F7004808F9
:102B3000F6004708F5004608F4009531C1259431A8
:102B400073082300B7007208B6007108B50070085A
:102B5000B4000330C0000030C100B12D2300C0011B
:102B6000C10102302200CC004530CB00A930890BD6
:102B7000B72DCB0BB72DCC0BB72D00324F2C80319E
:102B80000228730880392000A0002008F80073355F
:102B9000A0002008FA00F21FCE2DCF2DD02D7A14E0
:102BA0007A080319D42DD52DE52D7A0A031DD92DC8
:102BB000DA2DE22D0030F3000030F2000030F10099
:102BC0000030F000F217F301ED2D0030F30000307B
:102BD000F2000030F1000030F00077088039A000EA
:102BE0002008F900790878060319F72DF82DF92D3A
:102BF00078177735A0002008F900F61F002E012E67
:102C0000022E791479080319062E072E172E790A39
:102C1000031D0B2E0C2E142E0030F7000030F60092
:102C20000030F5000030F400F617F7011F2E0030D9
:102C3000F7000030F6000030F5000030F4007A08AC
:102C400079020318242E252E692E781F282E292E6E
:102C50002D2E8030A0002008F8067A08A000200859
:102C6000FB007908A0002008FA007B08A0002008DB
:102C7000F9007008A0002008FB007408A0002008DC
:102C8000F0007B08A0002008F4007108A0002008D4
:102C9000FB007508A0002008F1007B08A0002008B8
:102CA000F5007208A0002008FB007608A0002008AC
:102CB000F2007B08A0002008F6007308A00020089E
:102CC000FB007708A0002008F3007B08A000200884
:102CD000F700FB017908A000A1012108A3007A08F0
:102CE0002002A200031CA3032308803AA400803022
:102CF0002402031D7D2E1A302202031C802E812EF9
:102D0000BB2E7308720471047004031D882E8A2E72
:102D100001308B2E00302000A0002008FB00003086
:102D2000F3000030F2000030F1000030F0007908CC
:102D3000A0002008FA00C12E7B1C9F2EA02EA72EDB
:102D40007B3601382000A0002008FB00A92E0310CC
:102D5000FB0C701CAC2EAD2EAE2EFB1701302000EC
:102D6000A000F337F20CF10CF00CA00BB12E0130E7
:102D7000A0002008FA0779087A02031CC02EC12E91
:102D80009C2E781BC42EC52EFF2E7A08031DC92E3B
:102D9000CA2ED32E0030F3000030F2000030F100D4
:102DA0000030F000FF2F7408F0077508F13D760839
:102DB000F23D7708F33D731CDE2EDF2E8C2F7B1C3B
:102DC000E22EE32EEA2E7B3601382000A0002008F8
:102DD000FB00EC2E0310FB0C701CEF2EF02EF12EDE
:102DE000FB1701302000A000F337F20CF10CF00CBF
:102DF000A00BF42E0130A0002008FA078C2F7308D6
:102E0000803A2000A0007708803A2002031D122F8C
:102E100076087202031D122F75087102031D122F0E
:102E2000740870020318152F162F4E2FFF30A000C4
:102E3000FF30A100FF30A200FF30A3007008740231
:102E4000A4007108753BA5007208763BA6007308C4
:102E5000773BA7002408A0072508A13D2608A23D2E
:102E60002708A33D2308F3002208F2002108F100FF
:102E70002008F0008030A0002008F806FB09FB0ABB
:102E80007B08031D442F452F562F0130F0070030DB
:102E9000F13D0030F23D0030F33D562F7408F00252
:102EA0007508F13B7608F23B7708F33B7308720430
:102EB00071047004031D5D2F5E2F882F7B08031D96
:102EC000622F632F882F0030F3000030F2000030B3
:102ED000F1000030F000FF2F0130F035F10DF20D60
:102EE000F30D890B6D2FFB1F762F772F782F701422
:102EF0007B1C7B2F7C2F7F2F0314FB0D812F031056
:102F0000FB0D7A080319852F862F882F0130FA02CE
:102F1000F21F8B2F8C2F6C2FF901FB1F902F912FFD
:102F20009F2F7B087F390319962F972F9A2FF9012E
:102F3000F90A9F2F701C9D2F9E2F9F2F972F790886
:102F40000319A32FA42FD22F0130F0070030F13D39
:102F50000030F23D0030F33D731CAF2FB02FD22F65
:102F600070082000A0007108A1007208A200730878
:102F7000A3000130A400A337A20CA10CA00CA40B49
:102F8000BB2F2308F3002208F2002108F1002008DB
:102F9000F0007A0A0319CD2FCE2FD22F0130A000D6
:102FA0002008FA077A0A0319D62FD72FDC2F7A08C0
:102FB000031DDB2FDC2FEA2F0030F3000030F2007E
:102FC0000030F1000030F0007A08031DE82FE92FEF
:102FD000EA2FF8017A1CED2FEE2FF02FF217F52FC4
:102FE0007F302000A0002008F2057A362000A000E3
:102FF0002008F300F81FFD2FFE2FFF2FF317080006
:10300000F7007108F5007008F4007708F200720804
:10301000F6007608860002308700F60A7508F3008D
:103020007408F200F40A0319F50A720884007308A0
:1030300085000008C03F8908031D1F282028092893
:103040000800083023009F0090309D0024309E002F
:1030500019309B009C010030F0000030F100A631D7
:10306000C42698310030F0000030F100A631CA26A5
:1030700098310030F0000030F100A631BE269831C2
:103080002200DF010800F800F401F5017008F200E9
:10309000F3017208F6007308F700781C50285128D5
:1030A00055287608F4077708F53D0130F635F70D19
:1030B000890B56280310F80C7808031D6028612836
:1030C0004D287508F1007408F00008007608BF3E2E
:1030D000F800FF30773DF900003079021A3003190B
:1030E0007802031C74287628013077280030FA0013
:1030F000FB017A08FC007B08FD007C087D040319B5
:10310000822883288A2820307604F600003077044D
:10311000F7008A28080022008C0103308E00073057
:1031200021008C0024308E001B3023008E003730AD
:103130008C0024008C0104308E0025008C018E014F
:10314000373026008C003F308E003F3027008C0047
:103150003F308E0015303C00A40014303D00A40028
:1031600008002000A300A101A201C9282008F9003D
:10317000FA017908F0007A08F1007808FB007B0872
:10318000F2009931DB21983101302000A107003095
:10319000A23D21082307F900790886000230870044
:1031A0000108FA007A08A0002008031DD828D928B1
:1031B000B62808002200C4003C302100EF006F0850
:1031C0002200C50044082100EF006F082200C6005D
:1031D000C701C801C901CA013B082100EB00220058
:1031E0003A082100EA004530EF006F08EC00463055
:1031F0009931062198312200470844072100EF0049
:103200006F08860001308700810108002200B700A6
:1032100021006B082200B90021006A082200B800D2
:10322000D501D601292938302100ED006D08E200D2
:103230006C08EE006E08E300220037088C3184240D
:103240009931210062082200D5072100630822007D
:10325000D63D38088400390885001200031D312945
:103260003229132956082100EB00220055082100BD
:10327000EA00080000307005F80000307105F90020
:1032800080307205FA007F307305FB007B087A04FA
:1032900079047804031D4D294E2956290030F30086
:1032A0000030F2000030F1000030F0000030740512
:1032B000F80000307505F90080307605FA007F309F
:1032C0007705FB007B087A0479047804031D6929DB
:1032D0006A2972290030F7000030F6000030F5004E
:1032E0000030F40077087306031D80297608720603
:1032F000031D802975087106031D80297408700656
:1033000003198329842986290310872903140800B7
:10331000F601F31F8C298D299429F209F309F20A89
:103320000319F30AF601F60AF11F972998299D2936
:10333000F009F109F00A0319F10A70087104031980
:10334000A229A329CC29F501F50AAF290130F035CE
:10335000F10D890BA7290130F4007408F507F11F5E
:10336000B229B329A62971087302031DB92970086F
:103370007202031CBC29BD29C1297008F202710820
:10338000F33B0130F136F00C890BC2290130F50214
:10339000031DCB29CC29B32976080319D029D129BB
:1033A000D629F209F309F20A0319F30A7308F100A6
:1033B0007208F000080072080319DF29E029E529E6
:1033C0007208031DE429E529EA29700880310420E8
:1033D0009931302A7208033E8600013087001600BA
:1033E00001040319F429F529142A7208033E860002
:1033F00001308700403FF300413FF400720A86002D
:1034000001308700403FF500413FF6007608803AE2
:10341000F7007408803A7702031D102A73087502BA
:103420000318132A142A302A7008F3007208860041
:1034300001308700720A840001308500000801070E
:10344000F400740886000130870073088100720A56
:103450008600013087000130810741310318810A5D
:1034600008002000AB0022005B1C372A382A412AC2
:1034700020002B08FC007C08F80024089831B120BB
:103480009A312000A61B452A462A4B2A2608AA0064
:103490002508A9004D2AA901AA01A701A801612AAE
:1034A0002030F0000030F10020002B08FC007C08E8
:1034B000F2009931DB219A3101302000A70700305A
:1034C000A83D2808803AFC002A08803A7C02031DA7
:1034D0006B2A29082702031C6E2A6F2A502A220011
:1034E0005B18732A742A7D2A20002B08FC007C08B4
:1034F000F80024089831B1209A3120002408A7311F
:1035000086279A31200029087007A4002A08713DF7
:10351000A5000800F5007508F4007408F8007108AB
:10352000F7007008F6000130F2020030F33B720A37
:10353000031D9E2A730A031D9E2A9F2AAE2AF001AC
:10354000F101E42A0130F4007408F8070130F607AD
:103550000030F73D0130F2020030F33B780886007E
:103560000130870001080319B62AB72AD62A76083F
:1035700084007708850012000319BF2AC02AD62AC2
:10358000720873040319C52AC62AD62A760884004D
:10359000770885000008F40078088600013087006D
:1035A000010874060319D52AD62AA22A78088600AB
:1035B0000130870076088400770885000008010242
:1035C000F000F101031CF1030800F601F11FE92AE4
:1035D000EA2AF12AF009F109F00A0319F10AF601C1
:1035E000F60AF31FF42AF52AFE2AF209F309F20A71
:1035F0000319F30A0130F4007408F606F701F80124
:10360000700871040319052B062B352BF501F50AFB
:10361000122B0130F035F10D890B0A2B0130F4002B
:103620007408F507F11F152B162B092B0130F73500
:10363000F80D890B172B71087302031D212B7008DD
:103640007202031C242B252B2A2B7008F20271080E
:10365000F33B77140130F136F00C890B2B2B013042
:10366000F502031D342B352B162B76080319392B45
:103670003A2B3F2BF709F809F70A0319F80A7808DB
:10368000F1007708F0000800003020003A05C20081
:1036900000303B05C30080303C05C4007F303D0551
:1036A000C5004508440443044204031D582B592B0C
:1036B000612B0030BD000030BC000030BB0000308A
:1036C000BA0000303E05C20000303F05C300803024
:1036D0004005C4007F304105C5004508440443044B
:1036E0004204031D742B752B7D2B0030C10000306C
:1036F000C0000030BF000030BE00BD1F802B812BFA
:10370000992B0030C2000030C3000030C40080306C
:10371000C5003A08C2023B08C33B3C08C43B3D0815
:10372000C53B4508BD004408BC004308BB00420837
:10373000BA00C11F9C2B9D2BB52B0030C20000305E
:10374000C3000030C4008030C5003E08C2023F08FC
:10375000C33B4008C43B4108C53B4508C100440881
:10376000C0004308BF004208BE008030BD06803064
:10377000C10641083D02031DC72B40083C02031D42
:10378000C72B3F083B02031DC72B3E083A02031814
:10379000CA2BCB2BCD2B0310CE2B03140800F80023
:1037A00078080319D42BD52BE92BF31FD82BD92B51
:1037B000E92B7009FA007109FB007209FC0073091A
:1037C000FD00FA0A0319FB0A0319FC0A0319FD0A92
:1037D000F12B7308FD007208FC007108FB007008F3
:1037E000FA007308720471047004031DF82BF92B9E
:1037F000022C0030F3000030F2000030F100003005
:10380000F0007A2C9630F4007408F900122C013084
:10381000F4007408F9070130FD36FC0CFB0CFA0CBF
:10382000890B0C2CFE307D05031D172C182C072C42
:103830002C2C0130F4007408F9070130FA0700302D
:10384000FB3D0030FC3D0030FD3D0130FD36FC0C01
:10385000FB0CFA0C890B262CFF307D05031D312C47
:10386000322C192C3C2C0130F9020130FA35FB0DB9
:10387000FC0DFD0D890B362CFC1B3F2C402C462CDF
:10388000023079020318452C462C332C7918492C28
:103890004A2C522CFF30FA05FF30FB057F30FC0527
:1038A000FF30FD050310F90C7908F400F501F6016D
:1038B000F7011830F435F50DF60DF70D890B5A2C7C
:1038C0007408FA047508FB047608FC047708FD0404
:1038D000780803196C2C6D2C722CF31F702C712C32
:1038E000722CFD177D08F3007C08F2007B08F100C4
:1038F0007A08F00008002000A701A801A001A1019A
:10390000852C0130F6070030F73DA601A60A76089F
:103910008400770885001200203A0319902C912C1E
:10392000A62C76088400770885000008F73EF8008A
:10393000FF3003180030F900003079020530031918
:103940007802031CA42CA52CA62CA6012608F8009E
:10395000F9017808A2007908A30022082304031DB6
:10396000B22CB32C812CBD2C0130A0000030A10062
:103970000130F6070030F73DF12C76088400770817
:1039800085000008F800F9017908003A0319C92CEC
:10399000F12C78082B3A0319B82C063A0319B42CE9
:1039A000F12C76088400770885000008F8002808C4
:1039B000F1002708F0000A30F2000030F300A731D0
:1039C000A0279C317108FA0078087002F900031CE6
:1039D000FA037908303E2000A70000307A3DA800A5
:1039E000B82C76088400770885000008D03EF800DF
:1039F000FF3003180030F900003079020A30031953
:103A00007802031C042D062D0130072D0030FA002A
:103A1000FB017A08A4007B08A50024082504031DE7
:103A2000122D132DD12C20082104031D182D192D22
:103A3000252D2709F8002809F900F80A0319F90AC1
:103A40007808F6007908F700292D2808F7002708DC
:103A5000F6000800F2012830860000308700473F5A
:103A6000F000F01F342D352D562D2000A809A9098E
:103A7000AA09AB09AC09AD09AE09AF09A80A031D33
:103A8000542DA90A031D542DAA0A031D542DAB0A57
:103A9000031D542DAC0A031D542DAD0A031D542DD6
:103AA000AE0A031D542DAF0AF201F20A203086003F
:103AB00000308700473FF000F01F5F2D602D7F2D05
:103AC0002000A009A109A209A309A409A509A60922
:103AD000A709A00A031D7F2DA10A031D7F2DA20A9D
:103AE000031D7F2DA30A031D7F2DA40A031D7F2D17
:103AF000A50A031D7F2DA60A031D7F2DA70A2000FE
:103B00002008210422042304240425042604270475
:103B100003198B2D8C2DDF2DF101F10A9B2DA03582
:103B2000A10DA20DA30DA40DA50DA60DA70D01308D
:103B3000F0007008F107A71F9E2D9F2D8F2D2708DD
:103B40002F02031DBD2D26082E02031DBD2D2508A5
:103B50002D02031DBD2D24082C02031DBD2D23089D
:103B60002B02031DBD2D22082A02031DBD2D210895
:103B70002902031DBD2D20082802031CC02DC12DC4
:103B8000D12D2008A8022108A93B2208AA3B23081E
:103B9000AB3B2408AC3B2508AD3B2608AE3B2708D1
:103BA000AF3BA736A60CA50CA40CA30CA20CA10C31
:103BB000A00C0130F102031DDE2DDF2D9F2D7208B8
:103BC0000319E32DE42D022EA809A909AA09AB09BE
:103BD000AC09AD09AE09AF09A80A031D022EA90A56
:103BE000031D022EAA0A031D022EAB0A031D022E7C
:103BF000AC0A031D022EAD0A031D022EAE0A031DE0
:103C0000022EAF0A20002808A0002908A1002A08D7
:103C1000A2002B08A3002C08A4002D08A5002E0844
:103C2000A6002F08A7000800220050082000EF007F
:103C300022004F082000EE0022004E082000ED0078
:103C400022004D082000EC005F08EF005E08EE0047
:103C50005D08ED005C08EC006C08E0006D08E10018
:103C60006E08E2006F08E3001730E336E20CE10C67
:103C7000E00C890B352EFF306005E4000030610553
:103C8000E5006408813EEA00FF30653DEB006B080B
:103C9000803AE00080306002031D502E17306A0227
:103CA000031C532E542E552EFE2E2000EB1B592E96
:103CB0005A2EB72EFF30E000FF30E1007F30E200E7
:103CC0000030E3006A0A682EE337E20CE10CE00CF6
:103CD000890B642E6308E9006208E8006108E700C8
:103CE0006008E6006C086605E0006D086705E10005
:103CF0006E086805E2006F086905E3006308620466
:103D000061046004031D852E862E872E542E6C08B8
:103D1000E0006D08E1006E08E2006F08E3001F306C
:103D2000E336E20CE10CE00C890B902E6308620490
:103D30006104600403199D2E9E2EA62E6608EC07D2
:103D40006708ED3D6808EE3D6908EF3D6609E00053
:103D50006709E1006809E2006909E3006008EC0511
:103D60006108ED056208EE056308EF05F62E6C08A4
:103D7000E0006D08E1006E08E2006F08E3001F300C
:103D8000E336E20CE10CE00C890BC02E6308620400
:103D900061046004031DCD2ECE2ED72E0030EF001F
:103DA0000030EE000030ED000030EC00F62E6C0824
:103DB000E0006D08E1006E08E2006F08E3000130EA
:103DC000E035E10DE20DE30D890BE02E630862049E
:103DD000610460040319ED2EEE2EF62EBF30EF00C5
:103DE0008030EE000030ED000030EC006F08DF00A6
:103DF0006E08DE006D08DD006C08DC000800F201D2
:103E00002030860000308700473FF000F01F092F68
:103E10000A2F2B2F2000A009A109A209A309A40998
:103E2000A509A609A709A00A031D292FA10A031D98
:103E3000292FA20A031D292FA30A031D292FA40A33
:103E4000031D292FA50A031D292FA60A031D292FAB
:103E5000A70AF201F20A2830860000308700473FA7
:103E6000F000F01F342F352F582F2000A809A90982
:103E7000AA09AB09AC09AD09AE09AF09A80A031D2F
:103E8000542FA90A031D542FAA0A031D542FAB0A4D
:103E9000031D542FAC0A031D542FAD0A031D542FCC
:103EA000AE0A031D542FAF0A0130F0007008F2066D
:103EB00073308600003087000830F00000301E00AC
:103EC000F00B5F2F20002008210422042304240487
:103ED00025042604270403196E2F6F2FCB2FF10121
:103EE000F10A7E2FA035A10DA20DA30DA40DA50DE5
:103EF000A60DA70D0130F0007008F107A71F812F54
:103F0000822F722FF335F40DF50DF60DF70DF80D28
:103F1000F90DFA0D27082F02031DA82F26082E02DF
:103F2000031DA82F25082D02031DA82F24082C02ED
:103F3000031DA82F23082B02031DA82F22082A02E5
:103F4000031DA82F21082902031DA82F20082802DD
:103F5000031CAB2FAC2FBD2F2008A8022108A93BC2
:103F60002208AA3B2308AB3B2408AC3B2508AD3B09
:103F70002608AE3B2708AF3B7314A736A60CA50C4A
:103F8000A40CA30CA20CA10CA00C0130F102031D87
:103F9000CA2FCB2F822F72080319CF2FD02FEE2FCD
:103FA000F309F409F509F609F709F809F909FA0915
:103FB000F30A031DEE2FF40A031DEE2FF50A031D6D
:103FC000EE2FF60A031DEE2FF70A031DEE2FF80A57
:103FD000031DEE2FF90A031DEE2FFA0A73082000C5
:103FE000A0007408A1007508A2007608A300770855
:103FF000A4007808A5007908A6007A08A7000800A0
:104D7C0071082200E1007008E000080071082200B0
:104D8C00E5007008E400080071082200E3007008D8
:104D9C00E2000800640080010131890BD12E00343F
:104DAC003200910192019301940195019601080042
:104DBC00803021009E009F019B019C0101309D00D1
:104DCC0008006230320099009B019D0103309F0066
:104DDC009E010800F0002000111EF52EF62EF12E7B
:104DEC00700823009A000800A631D626A631983107
:104DFC008B20A631A631E726A63188310020A631BA
:104E0C00A631DE26A63198312120A63108001A2FB2
:104E1C0071088400720885000008A631F026A731BD
:104E2C000130F1070030F23D7108840072088500F2
:104E3C001200031D222F232F0E2F0800F3007308DE
:104E4C00F200F20DF20D21001D08720603397206F4
:104E5C009D001D14000021009D149D18362F372F26
:104E6C00332F1C08F1001B08F00008007008D03E1E
:104E7C00F200FF30713DF300003073020A30031969
:104E8C007202031C4A2F4C2F01304D2F0030F400BE
:104E9C00F5017408F0007508F10008007008BF3EB9
:104EAC00F200FF30713DF300003073021A30031929
:104EBC007202031C622F642F0130652F0030F40046
:104ECC00F5017408F0007508F10008007408803AC8
:104EDC00F50080307502031D752F01307302031825
:104EEC00782F792F852F7309F5007409F600F50AD0
:104EFC000319F60A7508F3007608F400852F0800EC
:104F0C00F4007408F2007208F300902F0130F200E4
:104F1C007208F40774088600023087000108031D2C
:104F2C00982F992F8C2F73087402F000F101F01B4D
:104F3C00F1030800F401F501701CA52FA62FAA2F70
:104F4C007208F4077308F53D0130F235F30D890B47
:104F5C00AB2F0130F136F00C890BB02F70087104B7
:104F6C00031DB92FBA2FA22F7508F1007408F00099
:104F7C00080080302000BD064108F3004008F20014
:104F8C003F08F1003E08F0003D08F7003C08F60031
:104F9C003B08F5003A08F4009531C125A731730898
:104FAC002000BD007208BC007108BB007008BA007C
:104FBC000800F401F40A2030700671040319E72F7D
:104FCC00E82FF82F7008F73EF200FF30713DF30028
:104FDC0000307302053003197202031CF62FF72FF1
:104FEC00F82FF4017408F200F3017208F000730852
:104FFC00F10008000A340A340D340A344D344734B5
:10500C003834313432344D344F344E3449345434D2
:10501C004F3452342034563431342E34303430340E
:10502C000D340A340034253464342C3425343534AE
:10503C002E343334663456340D340A340034493447
:10504C004E34463400344E3441344E3400346934DA
:10505C006E34663400346E3461346E3400346C3427
:04506C006634003472
:020000040001F9
:08000E00EC3FF33FFF3FFF3F11
:00000001FF
