:10000000803102288731ED2F080064008001013122
:10001000890B0628003403102000590D5A0DDB000F
:100020005B08E1006108031D16281728202800300E
:10003000DA000030D9000030D8000030D7007F2827
:100040005708DB005808DC005908DD005A08DE00BC
:100050001F30DE36DD0CDC0CDB0C890B29285B083D
:10006000DF005F08E000D917FF30D705FF30D80563
:10007000FF30D9050030DA059630E102E11F412852
:1000800042285A286108803A973E03184828492890
:100090004A2817280130DA36D90CD80CD70C890B2E
:1000A0004B280130DB005B08E107031D5828592865
:1000B0004A286F2820306102031C5F2860286A28C4
:1000C00017280130D735D80DD90DDA0D890B6228E4
:1000D0000130E1026108031D6E286F286128600865
:1000E0000319732874287F28D709D809D909DA0990
:1000F000D70A0319D80A0319D90A0319DA0A08001A
:100100002100C000BE01BF0120006E082100D40004
:1001100020006D082100D30020006C082100D200CF
:1001200020006B082100D10054082000B8002100F5
:1001300053082000B700210052082000B60021001B
:1001400051082000B5000030BC000030BB0000307A
:10015000BA000030B9009C312F2480310318B12837
:10016000B228CB2801302100BE000030BF00540867
:10017000F3005308F2005208F1005108F0009831E2
:100180000620803173082100D4007208D300710862
:10019000D2007008D1002100D701D80123002B081C
:1001A0002100C40023002A082100C3003E083F04A8
:1001B000031DDB28DC28E12823002E1DE028E12890
:1001C000FF2821003E083F04031DE728E828ED280A
:1001D0002B30A4000030A500F1282D30A400003001
:1001E000A5002408A00020082400A0000130210060
:1001F000D7070030D83DFF30C307FF30C43D210092
:100200005408F3005308F2005208F1005108F000BE
:100210009B31B023803170037104031D1029112913
:10022000612920006F08BF3E2100A000FF300318A5
:100230000030A100003021021A3003192002031CF3
:1002400022292429013025290030A200A3012208F7
:10025000A6002308A70026082704031930293129FE
:100260003B292130F000A830F1005708203E98319A
:100270007120803144292930F000A830F10057085E
:10028000203E983171208031FD302100C307FF30BE
:10029000C43D2030A00020082000A4002100440814
:1002A0002000A600210043082000A50021004008EE
:1002B0009A319D22803120002508EC002408EB00B3
:1002C000EC2F21005408F3005308F2005208F1000B
:1002D0005108F0009B31B023803170087104031D78
:1002E00072297329C32920006F08BF3E2100A00096
:1002F000FF3003180030A100003021021A3003192A
:100300002002031C84298629013087290030A2009D
:10031000A3012208A8002308A9002808290403191A
:10032000922993299D292530F000A830F100570823
:10033000203E983171208031A6292D30F000A83060
:10034000F1005708203E983171208031FD302100A6
:10035000C307FF30C43D2030A00020082000A400C7
:10036000210044082000A600210043082000A50029
:10037000210040089A319D22803120002508EC00A0
:100380002408EB00EC2F3F302100DC008030DB0044
:100390000030DA000030D900D501D6015408F3004E
:1003A0005308F2005208F1005108F0000030F70045
:1003B0000030F6000030F5000030F4009931A6213D
:1003C00080310318E429E529A92A162A41302000A2
:1003D000A3002030A2000030A1000030A0002100C6
:1003E0005C082000A70021005B082000A600210077
:1003F0005A082000A500210059082000A4008A31D5
:1004000043228031200023082100DC002000220844
:100410002100DB00200021082100DA002000200854
:100420002100D9000130D5070030D63D2100540805
:100430002000B800210053082000B7002100520816
:100440002000B600210051082000B5004130A30073
:100450002030A2000030A1000030A00021005C0884
:100460002000A70021005B082000A60021005A08F8
:100470002000A500210059082000A4008A31432251
:10048000803120002308BC002208BB002108BA00EC
:100490002008B9009C312F2480310318502A512A9A
:1004A000E629822A41302000C0002030BF00003001
:1004B000BE000030BD0021005C082000C400210007
:1004C0005B082000C30021005A082000C200210060
:1004D00059082000C10096314C2680312000400888
:1004E0002100DC0020003F082100DB0020003E0846
:1004F0002100DA0020003D082100D900FF30D50797
:10050000FF30D63D210054082000B80021005308D8
:100510002000B700210052082000B6002100510839
:100520002000B50021005C082000BC0021005B0811
:100530002000BB0021005A082000BA002100590801
:100540002000B9009C312F248031031CA82AA92A3D
:10055000522A20006F082100A000A1012008F60007
:100560002108F7009831FB20803176082100A20095
:100570002208C6004608A0002008C50067304606CD
:10058000031DC32AC42AED2A23002C082D04031DB1
:10059000CA2ACB2ACF2A0130AC000030AD002D088A
:1005A000803A2100A00080302002031DDA2A0130A9
:1005B00023002C020318DD2ADE2AE42A063021005B
:1005C000C1000030C200F32A23002D082100C20020
:1005D00023002C082100C100F32A2300AD1BF12ABF
:1005E000F22ADE2AE42A67304606031DF82AF92A91
:1005F000262B5608803AA0007F302002031D022BD4
:10060000FC305502031C052B062B212B2100410831
:10061000FF3EA000FF30423DA1002108803AA20029
:100620005608803A2202031D172B55082002031C8E
:100630001A2B1B2B212B66302100A0002008C5009F
:10064000262B65302100A0002008C5004208B70015
:100650004108B60067304606031D2F2B302B3A2B7E
:1006600066304506031D352B362B3E2BD61F392B06
:100670003A2B3E2B0130B6070030B73D66304506B9
:10068000031D432B442B5C2BD61F472B482B522B8F
:100690003F30DC008030DB000030DA000030D90071
:1006A000D501D601673046060319572B582B5C2B12
:1006B0005508B6075608B73DCF01D0015408CA0007
:1006C0005308C9005208C8005108C7005C08BB00A5
:1006D0005B08BA005A08B9005908B800462C210036
:1006E0005C082000C00021005B082000BF00210042
:1006F0005A082000BE00210059082000BD0021003A
:100700004A082000C400210049082000C30021003D
:1007100048082000C200210047082000C10096318F
:100720004C26803120004008DA003F08D9003E08FE
:10073000D8003D08D7009231BA22803120005A08F3
:100740002100CE00200059082100CD0020005808CB
:100750002100CC00200057082100CB004E082000CB
:10076000DA0021004D082000D90021004C082000AB
:10077000D80021004B082000D70080310B208031A9
:10078000200058082100BD00200057082100BC00AF
:100790004E082000A70021004D082000A6002100DF
:1007A0004C082000A50021004B082000A4002100D7
:1007B0005C082000A30021005B082000A2002100AB
:1007C0005A082000A100210059082000A0008A3109
:1007D0004322803120002308B8002208B7002108F6
:1007E000B6002008B50021004A082000BC00210006
:1007F00049082000BB00210048082000BA00210061
:1008000047082000B9009831302080312000380896
:100810002100CA00200037082100C9002000360846
:100820002100C800200035082100C7004130200009
:10083000C0002030BF000030BE000030BD002100ED
:100840005C082000C40021005B082000C3002100D8
:100850005A082000C200210059082000C10096312A
:100860004C268031200040082100DC0020003F0899
:100870002100DB0020003E082100DA0020003D08B6
:100880002100D9000130CF070030D03D5008803A18
:10089000A0003708803A2002031D502C36084F0272
:1008A000031C532C542C6F2B40302000A300A0308D
:1008B000A2000030A1000030A00021005C08200050
:1008C000A70021005B082000A60021005A08200094
:1008D000A500210059082000A4008A31432280315C
:1008E000200023082100CE00200022082100CD0096
:1008F000200021082100CC00200020082100CB008E
:100900004A082000B800210049082000B700210053
:1009100048082000B600210047082000B50021004B
:100920004E082000BC0021004D082000BB00210023
:100930004C082000BA0021004B082000B9009C316F
:100940002F2480310318A52CA62CB02C00302100B8
:10095000CE000030CD000030CC000030CB00D52CD4
:1009600021004A08F3004908F2004808F10047084E
:10097000F0004E08F7004D08F6004C08F5004B0853
:10098000F4009931A6218031031CC72CC82CD52C2A
:1009900021003C18CC2CCD2CD52C0030CE000030C2
:1009A000CD000030CC000030CB0021004E08F30019
:1009B0004D08F2004C08F1004B08F0005408F70015
:1009C0005308F6005208F5005108F400883104205D
:1009D000803173082100CA007208C9007108C8007C
:1009E0007008C7004A082000B8002100490820000C
:1009F000B700210048082000B60021004708200069
:100A0000B5004130A3002030A2000030A10000302A
:100A1000A00021003B082000A70021003A08200088
:100A2000A600210039082000A50021003808200078
:100A3000A4008A314322803120002308BC00220810
:100A4000BB002108BA002008B9009C312F24803156
:100A5000031C2B2D2C2D672D01302100D5070030D4
:100A6000D63D41302000A3002030A2000030A1007C
:100A70000030A00021003B082000A70021003A0818
:100A80002000A600210039082000A5002100380818
:100A90002000A4008A314322803120002308210055
:100AA000BB00200022082100BA00200021082100FC
:100AB000B900200020082100B80066304506031D5B
:100AC000622D632D672D0130B6070030B73D210040
:100AD0003B08DC003A08DB003908DA003808D900A6
:100AE000653045060319752D762D7B2D5608B5000A
:100AF0005508B4007D2DB401B501B201B301B001B8
:100B0000B101CF01D001C82E21005C082000C00037
:100B100021005B082000BF0021005A082000BE0011
:100B2000210059082000BD0021004A082000C4000F
:100B3000210049082000C300210048082000C2000D
:100B4000210047082000C10096314C26803120004A
:100B50004008DA003F08D9003E08D8003D08D70019
:100B60009231BA22803120005A082100CE002000A4
:100B700059082100CD00200058082100CC00200099
:100B800057082100CB004E082000DA0021004D0854
:100B90002000D90021004C082000D80021004B087B
:100BA0002000D70080310B20803120005808210020
:100BB000BD00200057082100BC0023002E1AE12DA3
:100BC000E22DF82D21003C083D04031DE82DE92D00
:100BD000F82D67304606031DEE2DEF2DF82DB51FBD
:100BE000F22DF32DF82D0130B0070030B13D462E27
:100BF000210032083304031DFE2DFF2D2E2EB51FBC
:100C0000022E032E2E2E2E30A0005708203E8600E6
:100C100002308700200881000130D7070030D83D1E
:100C2000FF30C307FF30C43D0130B2000030B300D5
:100C30002E2E3030A0005708203E8600023087005C
:100C4000200881000130D7070030D83DFF30C307AE
:100C5000FF30C43DFF30B007FF30B13D30083104F4
:100C6000031D332E342E192E3C08303EA0005708A9
:100C7000203E860002308700200881000130D7071F
:100C80000030D83DFF30C307FF30C43D4E08200080
:100C9000A70021004D082000A60021004C082000DC
:100CA000A50021004B082000A40021005C082000C2
:100CB000A30021005B082000A20021005A082000A8
:100CC000A100210059082000A0008A314322803170
:100CD00020002308B8002208B7002108B600200829
:100CE000B50021004A082000BC002100490820006E
:100CF000BB00210048082000BA002100470820005E
:100D0000B900983130208031200038082100CA0015
:100D1000200037082100C900200036082100C80043
:100D2000200035082100C70041302000C0002030DD
:100D3000BF000030BE000030BD0021005C08200074
:100D4000C40021005B082000C30021005A082000D5
:100D5000C200210059082000C10096314C26803184
:100D6000200040082100DC0020003F082100DB00BB
:100D700020003E082100DA0020003D082100D900B3
:100D8000FF30B407FF30B53D0130CF070030D03D14
:100D90005008803AA0003708803A2002031DD22E66
:100DA00036084F020318D52ED62EE42E21005808FF
:100DB000803AA00080302002031DE02E4B30570205
:100DC000031CE32EE42E842D210032083304031D7E
:100DD000EA2EEB2EFE2E23002E1EEF2EF02EFE2EE0
:100DE0002E302100A0005708203E860002308700E8
:100DF000200881000130D7070030D83D2100570876
:100E0000203E860002308700810165304506031DC3
:100E10000A2F0B2FD42F4F30CF000030D0004F08B7
:100E2000203E8600023087008101BE01BF01D61F2F
:100E30001A2F1B2F242F0130BE000030BF00D50910
:100E4000D609D50A0319D60A0230C1000030C20003
:100E50005C2FFF302100CF07FF30D03D0A30F0007B
:100E60000030F1005608F3005508F2009931F421E2
:100E700080317008303E2100A0004F08203E8600DF
:100E800002308700200881000A30F0000030F100B5
:100E90005608F3005508F2009B3151238031710848
:100EA0002100D6007008D500FF30C107FF30C23DD9
:100EB000FF30C307FF30C43D55085604031D612FA2
:100EC000622F292F4208803AA00080302002031DA3
:100ED0006B2F0130410203186E2F6F2F292FFF3027
:100EE0002100CF07FF30D03D3E083F04031D792F7E
:100EF0007A2F7F2F2B30AA000030AB00832F2D30AC
:100F0000AA000030AB002A08A0004F08203E86004F
:100F10000230870020088100FF30C307FF30C43D46
:100F2000FF30CF07FF30D03D20006F08BF3E2100CB
:100F3000A000FF3003180030A100003021021A3059
:100F400003192002031CA52FA72F0130A82F003062
:100F5000A200A3012208AE002308AF002E082F0430
:100F6000031DB32FB42FB92F6530AC000030AD0096
:100F7000BD2F4530AC000030AD002C08A0004F085C
:100F8000203E86000230870020088100FF30C30722
:100F9000FF30C43D4F08203EF0000230F1005708FA
:100FA000203E98317120803120302100A00020089F
:100FB0002000A400210044082000A60021004308CE
:100FC0002000A500210040089A319D228031200098
:100FD0002508EC002408EB000800A0308400013054
:100FE00085001330803105208731203084000230A5
:100FF0008500503080310520873120009331A52BAA
:101000001630210097000800730880392000A000E6
:101010002008F8007335A0002008FA00F21F1128FC
:10102000122813287A147A08031917281828282850
:101030007A0A031D1C281D2825280030F3000030E3
:10104000F2000030F1000030F000F217F301302818
:101050000030F3000030F2000030F1000030F0000A
:1010600077088039A0002008F9007908780603196C
:101070003A283B283C2878177735A0002008F9004B
:10108000F61F43284428452879147908031949286C
:101090004A285A28790A031D4E284F28572800301D
:1010A000F7000030F6000030F5000030F400F617CD
:1010B000F70162280030F7000030F6000030F5003C
:1010C0000030F4007A087902031867286828AC28F1
:1010D000781F6B286C2870288030A0002008F80644
:1010E0007A08A0002008FB007908A0002008FA0078
:1010F0007B08A0002008F9007008A0002008FB0071
:101100007408A0002008F0007B08A0002008F4006C
:101110007108A0002008FB007508A0002008F1005D
:101120007B08A0002008F5007208A0002008FB0042
:101130007608A0002008F2007B08A0002008F60036
:101140007308A0002008FB007708A0002008F30027
:101150007B08A0002008F700FB017908A000A1018E
:101160002108A3007A082002A200031CA30323087D
:10117000803AA40080302402031DC0281A302202C5
:10118000031CC328C428FE28730872047104700469
:10119000031DCB28CD280130CE2800302000A00030
:1011A0002008FB000030F3000030F2000030F100B6
:1011B0000030F0007908A0002008FA0004297B1C08
:1011C000E228E328EA287B3601382000A000200826
:1011D000FB00EC280310FB0C701CEF28F028F12812
:1011E000FB1701302000A000F337F20CF10CF00CDB
:1011F000A00BF4280130A0002008FA0779087A0231
:10120000031C03290429DF28781B07290829422900
:101210007A08031D0C290D2916290030F30000302F
:10122000F2000030F1000030F000422A7408F007AC
:101230007508F13D7608F23D7708F33D731C2129CE
:101240002229CF297B1C252926292D297B360138E7
:101250002000A0002008FB002F290310FB0C701CAD
:10126000322933293429FB1701302000A000F3373D
:10127000F20CF10CF00CA00B37290130A000200873
:10128000FA07CF297308803A2000A0007708803A37
:101290002002031D552976087202031D5529750881
:1012A0007102031D55297408700203185829592921
:1012B0009129FF30A000FF30A100FF30A200FF30D5
:1012C000A30070087402A4007108753BA5007208A1
:1012D000763BA6007308773BA7002408A0072508E3
:1012E000A13D2608A23D2708A33D2308F3002208BC
:1012F000F2002108F1002008F0008030A000200852
:10130000F806FB09FB0A7B08031D87298829992910
:101310000130F0070030F13D0030F23D0030F33D88
:1013200099297408F0027508F13B7608F23B7708BA
:10133000F33B7308720471047004031DA029A129F2
:10134000CB297B08031DA529A629CB290030F30052
:101350000030F2000030F1000030F000422A01308D
:10136000F035F10DF20DF30D890BB029FB1FB929F2
:10137000BA29BB2970147B1CBE29BF29C2290314BA
:10138000FB0DC4290310FB0D7A080319C829C929CC
:10139000CB290130FA02F21FCE29CF29AF29F9015A
:1013A000FB1FD329D429E2297B087F390319D929C6
:1013B000DA29DD29F901F90AE229701CE029E1297D
:1013C000E229DA2979080319E629E729152A0130E3
:1013D000F0070030F13D0030F23D0030F33D731C6A
:1013E000F229F329152A70082000A0007108A10035
:1013F0007208A2007308A3000130A400A337A20C56
:10140000A10CA00CA40BFE292308F3002208F20073
:101410002108F1002008F0007A0A0319102A112A85
:10142000152A0130A0002008FA077A0A0319192AA0
:101430001A2A1F2A7A08031D1E2A1F2A2D2A003065
:10144000F3000030F2000030F1000030F0007A08C4
:10145000031D2B2A2C2A2D2AF8017A1C302A312A26
:10146000332AF217382A7F302000A0002008F20526
:101470007A362000A0002008F300F81F402A412AF5
:10148000422AF3170800200023088039F900790860
:10149000A8002335F9007908AE00A21F502A512A6E
:1014A000522A2E142E080319562A572A662A2E0A63
:1014B000031D5B2A5C2A642A0030A3000030A200CE
:1014C0000030A1000030A000A2176E2A0030A30057
:1014D0000030A2000030A1000030A00027088039B1
:1014E000F9007908A8062735F9007908AD00A61F8C
:1014F0007A2A7B2A7C2A2D142D080319802A812A16
:10150000902A2D0A031D852A862A8E2A0030A700DC
:101510000030A6000030A5000030A400A617982ACD
:101520000030A7000030A6000030A5000030A40065
:101530002D0803199C2A9D2AA22A2E08031DA12AE0
:10154000A22AAB2A0030A3000030A2000030A10084
:101550000030A000992C2008F9007908F000260836
:101560009831B4208A3171082000B4007008B300AB
:101570003308F900FA01FB01FC017C08AC007B0890
:10158000AB007A08AA007908A9003408F900FA012A
:10159000FB01FC017C08B2007B08B1007A08B000B6
:1015A0007908AF002108F9007908F0002508983182
:1015B000B4208A3171082000B4007008B3003308E9
:1015C000F900FA01FB01FC017908A9077A08AA3D94
:1015D0007B08AB3D7C08AC3D3408F900FA01FB0107
:1015E000FC017908AF077A08B03D7B08B13D7C0863
:1015F000B23D2208F9007908F00024089831B4209F
:101600008A3171082000B4007008B3003308F90073
:10161000FA01FB01FC017908A9077A08AA3D7B08B9
:10162000AB3D7C08AC3D3408F900FA01FB01FC013C
:101630007908AF077A08B03D7B08B13D7C08B23D20
:101640000830A935AA0DAB0DAC0D890B212B210853
:10165000F9007908F00024089831B4208A31710823
:101660002000B4007008B3003308A9073408AA3D6D
:101670000030AB3DAC3D2008F9007908F0002508AA
:101680009831B4208A3171082000B4007008B3008A
:101690003308A9073408AA3D0030AB3DAC3D083003
:1016A000A935AA0DAB0DAC0D890B502B2008F90004
:1016B0007908F00024089831B4208A31710820009C
:1016C000B4007008B3003308A9073408AA3D0030FD
:1016D000AB3DAC3D2108F9007908F00026089831AF
:1016E000B4208A3171082000B4007008B3003308B8
:1016F000AF073408B03D0030B13DB23D2208F900DB
:101700007908F00025089831B4208A31710820004A
:10171000B4007008B3003308AF073408B03D0030A0
:10172000B13DB23D2208F9007908F0002608983151
:10173000B4208A3171082000B4007008B300330867
:10174000F9003408FA00FB01FC010830F935FA0D04
:10175000FB0DFC0D890BA62B7908AF077A08B03D6D
:101760007B08B13D7C08B23D2908F9002A08FA003F
:101770002B08FB002C08FC001830FC36FB0CFA0C84
:10178000F90C890BBD2B7908AF077A08B03D7B08AF
:10179000B13D7C08B23D0830A935AA0DAB0DAC0DAA
:1017A000890BCC2B2E082D07F900FA01FA0D7908C8
:1017B000823EB300FF307A3DB400F52B0130AF35E7
:1017C000B00DB10DB20D890BDF2BAC1FE82BE92B4F
:1017D000EA2B2F140130A935AA0DAB0DAC0D890BE6
:1017E000EB2BFF30B307FF30B43DB11FF82BF92BC3
:1017F000DE2BAD01AC1FFD2BFE2B1A2CFF30290573
:10180000F900FF302A05FA00FF302B05FB007F307E
:101810002C05FC007C087B047A0479040319112C44
:10182000122C152CAD01AD0A1A2C2F1C182C192CBA
:101830001A2C122C2D0803191E2C1F2C472C01309A
:10184000AF070030B03D0030B13D0030B23D321C3A
:101850002A2C2B2C472C2F08F9003008FA003108CD
:10186000FB003208FC000130FD00FC37FB0CFA0CD9
:10187000F90CFD0B352C7C08B2007B08B1007A080E
:10188000B0007908AF000130B3070030B43D340830
:10189000803AF90080307902031D502CFF3033026A
:1018A000031C532C542C5E2C7F302000B20080305F
:1018B000B1000030B0000030AF008D2C20003408A3
:1018C000803AF90080307902031D682C0130330220
:1018D00003186B2C6C2C772C00302000B2000030E9
:1018E000B1000030B0000030AF00A8018D2C200006
:1018F0003308F9007908AE00FF30AF05FF30B005BE
:101900007F30B1050030B2052E1C872C882C892C25
:10191000B1172E36F9007908B2002808F9007908C5
:10192000B2043208A3003108A2003008A1002F0839
:10193000A00008002200B60021005D088600870193
:10194000403FDF00413FE0005F0884006008850001
:101950001200253A031DAD2CAE2CDA2F5D0886004F
:1019600087010130810741310318810A2300AA0150
:10197000AB01AE01AF01FF30AC00FF30AD00210084
:101980005D0886008701403FDF00413FE0005F08BF
:1019900084006008850012002A3A031DD02CD12C47
:1019A000F32C5D088600870101308107413103185F
:1019B000810A5E088600013087000108840001303A
:1019C000850002308107003F2300AA00013FAB00E1
:1019D000AB1FEB2CEC2C392D2E14AA09AB09AA0A4B
:1019E0000319AB0A392D5D0886008701403FF600D8
:1019F000413FF7009D3166258C3177082300AB000D
:101A00007608AA000C2D21005D08860087010130B0
:101A1000810741310318810A21005D088600870192
:101A2000403FDF00413FE0005F0884006008850020
:101A30000008D03EE100FF3003180030E200003023
:101A400062020A3003196102031C272D292D01307F
:101A50002A2D0030E300E40163082200A8002100E1
:101A600064082200A90028082904031D382D392DF7
:101A7000032D21005D0886008701403FDF00413FC4
:101A8000E0005F0884006008850012002E3A031D04
:101A90004A2D4B2DC62D2300AC01AD0121005D0860
:101AA000860087010130810741310318810A5D08F2
:101AB00086008701403FDF00413FE0005F0884006F
:101AC0006008850012002A3A031D672D682D802DBD
:101AD0005D08860087010130810741310318810AC2
:101AE0005E0886000130870001088400013085000F
:101AF00002308107003F2300AC00013FAD00C62D3E
:101B00005D0886008701403FF600413FF7009D31A8
:101B100066258C3177082300AD007608AC00992D3E
:101B200021005D08860087010130810741310318DB
:101B3000810A21005D0886008701403FDF00413FA8
:101B4000E0005F088400600885000008D03EE100E6
:101B5000FF3003180030E200003062020A3003193F
:101B60006102031CB42DB62D0130B72D0030E30007
:101B7000E40163082200AA00210064082200AB00EF
:101B80002A082B04031DC52DC62D902D21005D08AC
:101B900086008701403FDF00413FE0005F0884008E
:101BA000600885000008E100E2016108F6006208B3
:101BB000F7009831FB208C3176082100E3006308A0
:101BC0002200B20032080319E62DE72D2A2E21004B
:101BD0005D0886008701403FDF00413FE0000130A3
:101BE0005F07840060080318600A85000008E100B0
:101BF000E2016108F6006208F7009831FB208C31A1
:101C000076082100E30063082200B30033080319BB
:101C10000A2E0B2E2A2E21005D0886008701403FE8
:101C2000DF00413FE00002305F07840060080318D6
:101C3000600A85000008E100E2016108F600620820
:101C4000F7009831FB208C3176082100E30063080F
:101C50002200B40021005D0886008701403FDF00BC
:101C6000413FE0005F088400600885001200643A8C
:101C700003193B2E3C2E4D2E5D0886008701403F08
:101C8000DF00413FE0005F0884006008850012002B
:101C9000693A031D4C2E4D2EA02E5D08860087014B
:101CA0000130810741310318810A5E088600013046
:101CB0008700010884000130850002308107003F61
:101CC000DF00013FE0005F082200A0002100600863
:101CD0002200A100890D893B8909A200A300A4006C
:101CE000A500A600A70020082000B00022002108BF
:101CF0002000B100220022082000B20022002308A8
:101D00002000B300220024082000B400220025088F
:101D10002000B500220026082000B6002200270877
:101D20002000B700220036089431DC248C312000DA
:101D300031082100DE00200030082100DD00FF2FE7
:101D4000663022003206031DA62EA72EF82E210093
:101D50005D0886008701403FDF00413FE0005F08EB
:101D60008400600885000008E10061082200B500D9
:101D700021005D0886008701013081074131031889
:101D8000810A5E0886000130870001088400013066
:101D9000850004308107003F2200AE00013FAF0004
:101DA000023FB000033FB10031082000EE002200E6
:101DB00030082000ED0022002F082000EC00220057
:101DC0002E082000EB00220035082100DF005F080C
:101DD0002000EF0022003608803180208C31200066
:101DE0006C082100DE0020006B082100DD00FF2FC1
:101DF0003130F000A830F1000230F2000030F30082
:101E000032309A31F6228C3170087104031D092F8B
:101E10000A2FA22F21005D0886008701403FDF00C6
:101E2000413FE00001305F07840060080318600A4A
:101E300085000008E10061082200B50021005D086E
:101E400086008701403FDF00413FE0005F088400DB
:101E5000600885000008BF3EE100FF300318003035
:101E6000E200003062021A3003196102031C392FAC
:101E70003B2F01303C2F0030E300E40163082200D7
:101E8000AC00210064082200AD002C082D040319C9
:101E90004A2F4B2F602F21005E08860001308700FB
:101EA000010884000130850004308107003F2200D2
:101EB000AE00013FAF00023FB000033FB100742FFE
:101EC00021005E088600013087000108840001308F
:101ED000850004308107003F2200AE00013FAF00C3
:101EE000023FB000033FB10021005D08860087017A
:101EF0000230810741310318810A22003108200095
:101F0000EE00220030082000ED0022002F08200003
:101F1000EC0022002E082000EB00220035082100F2
:101F2000DF005F082000EF002200360880318020AB
:101F30008C3120006C082100DE0020006B0821009D
:101F4000DD00FF2F21005D0886008701403FDF0094
:101F5000413FE0005F088400600885001200253AD8
:101F6000031DB32FB42FCF2F5D08860087010130EA
:101F7000810741310318810A2530F0000030F1005B
:101F8000220036082100DF005F08F2009A31472264
:101F90008C3101302100DD000030DE00FF2F5D08B4
:101FA000860087010130810741310318810ADD0174
:101FB000DE01FF2F5D0886008701403FDF00413FC3
:101FC000E0005F088400600885000008E100E2018D
:101FD0006108F0006208F100220036082100E300E9
:101FE0006308F2009A3147228C3121005D08860097
:101FF00087010130810741310318810AC92F080088
:102000009034013494340134983401349B340134D5
:102010009F340134A3340134A7340134AB34013488
:10202000AF340134B3340134B7340134BB34013438
:10203000C0340134C4340134C8340134CC340134E4
:10204000D1340134D5340134D9340134DE3401348F
:10205000E2340134E7340134EC340134F034013437
:10206000F5340134FA340134FE34013403340234DB
:10207000083402340D34023412340234173402347A
:102080001C34023421340234263402342B3402341A
:1020900030340234363402343B34023440340234B7
:1020A000463402344B340234513402345634023450
:1020B0005C34023462340234683402346D340234E5
:1020C00073340234793402347F3402348534023478
:1020D0008B34023491340234973402349E34023407
:1020E000A4340234AA340234B1340234B734023492
:1020F000BE340234C4340234CB340234D234023419
:10210000D9340234DF340234E6340234ED3402349C
:10211000F4340234FC340234033403340A34033418
:102120001134033419340334203403342834033491
:102130002F340334373403343F3403344734033407
:102140004E340334563403345E340334673403347A
:102150006F340334773403347F34033488340334E6
:102160009034033499340334A2340334AA3403344E
:10217000B3340334BC340334C5340334CE340334B1
:10218000D7340334E1340334EA340334F33403340E
:10219000FD34033406340434103404341A34043463
:1021A000243404342E3404343834043442340434B3
:1021B0004C34043457340434613404346C340434FF
:1021C00076340434813404348C3404349734043445
:1021D000A2340434AD340434B8340434C434043484
:1021E000CF340434DB340434E7340434F2340434BC
:1021F000FE3404340A3405341634053423340534EB
:102200002F3405343C340534483405345534053412
:10221000623405346F3405347C3405348934053434
:1022200096340534A4340534B1340534BF34053450
:10223000CD340534DB340534E9340534F734053462
:102240000634063414340634233406343234063467
:1022500041340634503406345F3406346E34063468
:102260007E3406348D3406349D340634AD34063461
:10227000BD340634CD340634DE340634EE34063450
:10228000FF34063410340734213407343234073431
:10229000433407345534073467340734783407340B
:1022A0008A3407349D340734AF340734C1340734DB
:1022B000D4340734E7340734FA3407340D3408349F
:1022C0002134083434340834483408345C34083455
:1022D000703408348434083499340834AE34083403
:1022E000C3340834D8340834ED34083403340934A2
:1022F000183409342E340934443409345B34093435
:1023000071340934883409349F340934B6340934BB
:10231000CD340934E5340934FD34093415340A3434
:102320002D340A3446340A345F340A3478340A349B
:1023300091340A34AA340A34C4340A34DE340A34F8
:10234000F8340A3413340B342D340B3448340B3442
:1023500063340B347F340B349A340B34B6340B347F
:10236000D3340B34EF340B340C340C3429340C34A8
:1023700046340C3464340C3482340C34A0340C34C1
:10238000BE340C34DD340C34FC340C341B340D34CA
:102390003B340D345B340D347B340D349B340D34BD
:1023A000BC340D34DD340D34FF340D3420340E34A0
:1023B00042340E3465340E3487340E34AA340E346D
:1023C000CE340E34F1340E3415340F343A340F3425
:1023D0005F340F3484340F34A9340F34CF340F34C6
:1023E000F5340F341B341034423410346934103453
:1023F00091341034B9341034E13410340A341134C7
:10240000333411345C34113486341134B034113423
:10241000DB34113406341234313412345D34123466
:1024200089341234B6341234E33412341134133490
:102430003F3413346D3413349C341334CB3413349D
:10244000FB3413342B3414345B3414348D3414348F
:10245000BE341434F0341434233415345534153464
:1024600089341534BD341534F1341534263416341A
:102470005B34163491341634C8341634FF341634B1
:10248000363417346E341734A6341734DF34173427
:1024900019341834533418348E341834C934183479
:1024A00004341934413419347E341934BB341934AA
:1024B000F934193438341A3477341A34B7341A34B6
:1024C000F7341A3438341B3479341B34BC341B349D
:1024D000FF341B3442341C3486341C34CB341C345B
:1024E00010341D3456341D349D341D34E4341D34F1
:1024F0002C341E3475341E34BE341E3408341F345C
:1025000053341F349F341F34EB341F343834203499
:1025100086342034D43420342334213473342134A9
:10252000C33421341534223467342234BA3422348B
:102530000E34233462342334B73423340D3424343A
:1025400064342434BC342434143425346E342534B7
:10255000C8342534233426347F342634DC342634FE
:10256000393427343200910192019301940195018D
:1025700096010800230023082000EA002300220817
:102580002000E900230021082000E80023002008A3
:102590002000E7005A08EA005908E9005808E80056
:1025A0005708E7006708DB006808DC006908DD0001
:1025B0006A08DE001730DE36DD0CDC0CDB0C890B24
:1025C000DB2AFF305B05DF0000305C05E0005F08C0
:1025D000813EE500FF30603DE6006608803ADB00A2
:1025E00080305B02031DF62A17306502031CF92AAE
:1025F000FA2AFB2AA42B2000E61BFF2A002B5D2BC6
:10260000FF30DB00FF30DC007F30DD000030DE001B
:10261000650A0E2BDE37DD0CDC0CDB0C890B0A2B7C
:102620005E08E4005D08E3005C08E2005B08E1008E
:1026300067086105DB0068086205DC00690863055E
:10264000DD006A086405DE005E085D045C045B046E
:10265000031D2B2B2C2B2D2BFA2A6708DB00680877
:10266000DC006908DD006A08DE001F30DE36DD0CA4
:10267000DC0CDB0C890B362B5E085D045C045B0410
:102680000319432B442B4C2B6108E7076208E83DF4
:102690006308E93D6408EA3D6109DB006209DC008A
:1026A0006309DD006409DE005B08E7055C08E805F6
:1026B0005D08E9055E08EA059C2B6708DB006808F1
:1026C000DC006908DD006A08DE001F30DE36DD0C44
:1026D000DC0CDB0C890B662B5E085D045C045B0480
:1026E000031D732B742B7D2B0030EA000030E900B2
:1026F0000030E8000030E7009C2B6708DB0068082A
:10270000DC006908DD006A08DE000130DB35DC0D25
:10271000DD0DDE0D890B862B5E085D045C045B0419
:102720000319932B942B9C2BBF30EA008030E900D7
:102730000030E8000030E7006A08DA006908D900D4
:102740006808D8006708D7000800A7315A279331D6
:102750000030F100A830F200A7316D27933100302E
:102760002200E3000030E2000030E1000030E00031
:10277000E801E9010230A731842793317108220072
:10278000DD007008DC005C08E0075D08E13D00301A
:10279000E23DE33D0130E8070030E93D6908803A59
:1027A0002100EE0083306E02031DD92BE830220099
:1027B0006802031CDC2BDD2BBA2B22006308F3001C
:1027C0006208F2006108F1006008F00001309C31FD
:1027D000BA24933173082200ED007208EC007108EE
:1027E000EB007008EA003B302000A300A030A200FC
:1027F0002830A1000A30A00022006D082000A700A8
:1028000022006C082000A60022006B082000A50012
:1028100022006A082000A4008A314322933120005C
:1028200023082200ED00200022082200EC002000F6
:1028300021082200EB00200020082200EA0044309A
:102840002000C0007A30BF000030BE000030BD0064
:1028500022006D082000C40022006C082000C30084
:1028600022006B082000C20022006A082000C1007C
:1028700096314C269331200040082200E7002000CA
:102880003F082200E60020003E082200E50020006C
:102890003D082200E40040302000BC003C30BB007A
:1028A0002830BA00F630B900220067082000B800CE
:1028B000220066082000B700220065082000B6004C
:1028C000220064082000B5009831302093312000A8
:1028D0003808C4003708C3003608C2003508C100F4
:1028E0003A30C0008330BF001230BE006F30BD00F0
:1028F00096314C26933120004008DA003F08D90079
:102900003E08D8003D08D70080310B2093312000CD
:1029100058082200EF00200057082200EE00EF1FA9
:10292000922C932C962CEE01EF01A32C01306F0218
:10293000593003196E02031C9E2C9F2CA32C583077
:10294000EE000130EF006F0885006E0884008435CA
:10295000850D003084079030853D003FDE00013F4B
:10296000DF001530B700A830B8005F08BA005E0875
:10297000B9006708BE006608BD006508BC006408B1
:10298000BB0048309931492193314830F100013082
:10299000F200A7316D27933102302100EF0045305E
:1029A000EE00A930890BD22CEE0BD22CEF0BD22CDF
:1029B0000032AF2B803102282000BD003008C40057
:1029C0003108C5003208C6003308C7003408C80003
:1029D0003508C9003608CA003708CB0044308600E5
:1029E00000308700473FB800B81BF72CF92C0130A6
:1029F000FA2C00302000B900BA013908C2003A08A8
:102A0000C300420843040319062D072D252DC409D0
:102A1000C509C609C709C809C909CA09CB09C40A31
:102A2000031D252DC50A031D252DC60A031D252DB1
:102A3000C70A031D252DC80A031D252DC90A031D1C
:102A4000252DCA0A031D252DCB0A2300AD1B292DD8
:102A50002A2D2E2DFD30AE05FF30AF052D08803A12
:102A60002000B80080303802031D392D01302300CA
:102A70002C0203183C2D3D2D432D01302000BE00BB
:102A80000030BF004B2D23002D082000BF00230085
:102A90002C082000BE0023002B082000C1002300CA
:102AA0002A082000C00042084304031D582D592D58
:102AB0005E2D23002E1D5D2D5E2D632DFF30200029
:102AC000C007FF30C13D4F302000CC000030CD00AA
:102AD0002400EF01D42DFF302000CC07FF30CD3D86
:102AE0000A30A000A101A201A301A401A501A60131
:102AF000A7014408A8004508A9004608AA004708FD
:102B0000AB004808AC004908AD004A08AE004B08CD
:102B1000AF009E311526943120002108F4002008D2
:102B2000F300A731CC2794317308303E2000B80061
:102B30004C08203E86000230870038088100FF30B4
:102B4000BE07FF30BF3DFF30C007FF30C13D0A3038
:102B5000A000A101A201A301A401A501A601A70152
:102B60004408A8004508A9004608AA004708AB0089
:102B70004808AC004908AD004A08AE004B08AF0059
:102B80009E31FF26943120002008C4002108C50092
:102B90002208C6002308C7002408C8002508C90069
:102BA0002608CA002708CB0020004D08803AB8004C
:102BB00080303802031DDE2D01304C02031CE12D54
:102BC000E22D0F2E20004408450446044704480423
:102BD00049044A044B04031DEE2DEF2D6B2D3F08D5
:102BE000803AB80080303802031DF82D01303E02D3
:102BF0000318FB2DFC2D6B2D20004108803AB800F6
:102C000080303802031D062E01304002031C092EBD
:102C10000A2E0F2E2300AE180E2E0F2E6B2D200025
:102C200042084304031D152E162E1B2E23002E1DB5
:102C30001A2E1B2E382EFF302000CC07FF30CD3D42
:102C400042084304031D252E262E2B2E2B30BB00BD
:102C50000030BC002F2E2D30BB000030BC003B08E4
:102C6000B8004C08203E86000230870038088100FA
:102C700020004C08203EB8003808A4004108A600F7
:102C80004008A5003D089A319D2294312000250876
:102C9000B1002408B0000800200044088039C500B5
:102CA0004508CE004435C5004508D500C31F592E40
:102CB0005A2E5B2E5514550803195F2E602E702E68
:102CC000550A031D642E652E6D2E0030C4000030A1
:102CD000C3000030C2000030C100C317C401782E09
:102CE0000030C4000030C3000030C2000030C1001A
:102CF00040088039C5004508CE064035C500450866
:102D0000D600BF1F842E852E862E56145608031912
:102D10008A2E8B2E9B2E560A031D8F2E902E982EB8
:102D20000030C0000030BF000030BE000030BD00E9
:102D3000BF17C001A32E0030C0000030BF0000301C
:102D4000BE000030BD0040083F043E043D04031DAA
:102D5000AA2EAB2EC42E0030C4000030C3000030B9
:102D6000C2000030C1008030C3047F30C4044E086C
:102D7000C5004508C4044408C0004308BF00420819
:102D8000BE004108BD00FF2F5508031DC82EC92EE7
:102D9000D22E0030C0000030BF000030BE00003036
:102DA000BD00FF2F5508C500C6014608C8005608DB
:102DB0004502C700031CC80347087F3ECF00003010
:102DC000483DD0004408CD004308CC004208CB0069
:102DD0004108CA000030C4000030C3000030C20007
:102DE0000030C1000030D4000030D3000030D200E9
:102DF0000030D100D6013A2F56080319002F012FB9
:102E00001B2F0130CA35CB0DCC0DCD0D890B022FF8
:102E10000130C135C20DC30DC40D890B092FD41F5C
:102E2000122F132F142F41140130D135D20DD30D91
:102E3000D40D890B152F40084D02031D292F3F0883
:102E40004C02031D292F3E084B02031D292F3D086C
:102E50004A02031C2C2F2D2F362F54173D08CA026F
:102E60003E08CB3B3F08CC3B4008CD3B0130C50082
:102E70004508D6071A305602031C3F2F402FFC2E60
:102E80004D084C044B044A040319472F482F612F67
:102E90005114612F0130C135C20DC30DC40D890B12
:102EA0004B2FD41F542F552F562F41140130D1359D
:102EB000D20DD30DD40D890B572FFF30CF07FF3024
:102EC000D03DC31F642F652F4A2FD601D41F692F11
:102ED0006A2F862FFF305105C500FF305205C6000E
:102EE000FF305305C7007F305405C8004808470429
:102EF0004604450403197D2F7E2F812FD601D60A63
:102F0000862F411C842F852F862F7E2F560803196C
:102F10008A2F8B2FB32F0130C1070030C23D003004
:102F2000C33D0030C43D441C962F972FB32F41085A
:102F3000C5004208C6004308C7004408C800013065
:102F4000C900C837C70CC60CC50CC90BA12F48084F
:102F5000C4004708C3004608C2004508C10001304C
:102F6000CF070030D03D5008803AC5008030450280
:102F7000031DBC2FFF304F02031CBF2FC02FCD2FCE
:102F8000FF302000CF000030D0000030C4000030FF
:102F9000C3000030C2000030C10020005008803A59
:102FA000C50080304502031DD72F01304F020318A2
:102FB000DA2FDB2FE72F2000CF01D0010030C40033
:102FC0000030C3000030C2000030C100CE0120003C
:102FD0004F08C5004508D500551CEF2FF02FF22FE4
:102FE000C317F62F7F30C5004508C3055536C50009
:102FF0004508C4004E08C5004508C404BB2E08009F
:1030000071082300B6007008B50008007308720448
:103010007104700403190D280E2810288030F3065F
:103020000800F401F501701C162817281B287208E7
:10303000F4077308F53D0130F235F30D890B1C28B8
:103040000130F136F00C890B212870087104031D42
:103050002A282B2813287508F1007408F0000800AE
:1030600080302000B8063C08F3003B08F2003A0824
:10307000F1003908F0003808F7003708F600360884
:10308000F5003508F40088310420983173082000D9
:10309000B8007208B7007108B6007008B5000800E3
:1030A000F401F40A203070067104031958285928D5
:1030B00069287008F73EF200FF30713DF3000030E0
:1030C0007302053003197202031C672868286928F7
:1030D000F4017408F200F3017208F0007308F100C3
:1030E0000800F7007108F5007008F4007708F20096
:1030F0007208F6007608860002308700F60A750826
:10310000F3007408F200F40A0319F50A7208840047
:10311000730885000008C03F8908031D9028912886
:103120007A280800083023009F0090309D0024304A
:103130009E0019309B009C010030F0000030F1002F
:10314000A731382798310030F0000030F100983175
:10315000002098310030F0000030F100A731322714
:1031600098312300B2010800F800F401F50170085D
:10317000F200F3017208F6007308F700781CC1280A
:10318000C228C6287608F4077708F53D0130F635E1
:10319000F70D890BC7280310F80C7808031DD128F8
:1031A000D228BE287508F1007408F000080022003B
:1031B0008C018E01043021008C0020308E001F30E5
:1031C00023008E0037308C0024008C018E012500F6
:1031D0008C018E01373026008C003F308E003F304E
:1031E00027008C003F308E0015303C00A4001430C6
:1031F0003D00A40008007608BF3EF800FF30773D90
:10320000F900003079021A3003197802031C0929E9
:103210000B2901300C290030FA00FB017A08FC0070
:103220007B08FD007C087D040319172918291F2934
:1032300020307604F60000307704F7001F290800DC
:103240002000A300A101A20138292008F900FA01F9
:103250007908F0007A08F1007808FB007B08F2009A
:103260009A314722993101302000A1070030A23D58
:1032700021082307F9007908860002308700010839
:10328000FA007A08A0002008031D472948292529AB
:1032900008002200C10039302100ED006D08220035
:1032A000C20041082100ED006D082200C300C401E6
:1032B000C501C601C70138082100E6002200370811
:1032C0002100E5004230ED006D08E7004330993100
:1032D000752199312200440841072100ED006D0855
:1032E000860001308700810108002100EA0066089D
:1032F000EC006508EB002300A801A9019329EB303D
:10330000E8006808DD006708E9006908DE006A086F
:103310008C319A24993121005D082300A8072100EF
:103320005E082300A93D21006B0884006C0885001D
:103330001200031D9C299D297F29230029082100B3
:10334000E600230028082100E50008000030700591
:10335000F80000307105F90080307205FA007F3006
:103360007305FB007B087A0479047804031DB929EE
:10337000BA29C2290030F3000030F2000030F10019
:103380000030F00000307405F80000307505F900D9
:1033900080307605FA007F307705FB007B087A04E1
:1033A00079047804031DD529D629DE290030F700D9
:1033B0000030F6000030F5000030F40077087306A6
:1033C000031DEC2976087206031DEC2975087106A9
:1033D000031DEC29740870060319EF29F029F2295E
:1033E0000310F32903140800F601F31FF829F92943
:1033F000002AF209F309F20A0319F30AF601F60AA0
:10340000F11F032A042A092AF009F109F00A031915
:10341000F10A7008710403190E2A0F2A382AF501DF
:10342000F50A1B2A0130F035F10D890B132A013002
:10343000F4007408F507F11F1E2A1F2A122A7108CA
:103440007302031D252A70087202031C282A292AE8
:103450002D2A7008F2027108F33B0130F136F00CAE
:10346000890B2E2A0130F502031D372A382A1F2A1C
:10347000760803193C2A3D2A422AF209F309F20A86
:103480000319F30A7308F1007208F00008007208CB
:1034900003194B2A4C2A512A7208031D502A512A1B
:1034A000562A7008803104209A319C2A7208033E03
:1034B000860001308700160001040319602A612A82
:1034C000802A7208033E860001308700403FF300E7
:1034D000413FF400720A860001308700403FF5004A
:1034E000413FF6007608803AF7007408803A770288
:1034F000031D7C2A7308750203187F2A802A9C2AE0
:103500007008F3007208860001308700720A840098
:103510000130850000080107F400740886000130BE
:10352000870073088100720A86000130870001302D
:10353000810741310318810A08002000AB002300F5
:103540002E1CA32AA42AAD2A20002B08FC007C08EC
:10355000F8002408993120219A312000A61BB12AB5
:10356000B22AB72A2608AA002508A900B92AA90163
:10357000AA01A701A801CD2A2030F0000030F100F7
:1035800020002B08FC007C08F2009A3147229A3177
:1035900001302000A7070030A83D2808803AFC0031
:1035A0002A08803A7C02031DD72A29082702031C17
:1035B000DA2ADB2ABC2A23002E18DF2AE02AE92A8D
:1035C00020002B08FC007C08F800240899312021F9
:1035D0009A3120002408A731E6279A3120002908D3
:1035E0007007A4002A08713DA5000800F5007508C1
:1035F000F4007408F8007108F7007008F600013054
:10360000F2020030F33B720A031D0A2B730A031DFA
:103610000A2B0B2B1A2BF001F101502B0130F40077
:103620007408F8070130F6070030F73D0130F20268
:103630000030F33B78088600013087000108031949
:10364000222B232B422B760884007708850012005A
:1036500003192B2B2C2B422B720873040319312BCB
:10366000322B422B76088400770885000008F4008E
:103670007808860001308700010874060319412B81
:10368000422B0E2B780886000130870076088400D4
:103690007708850000080102F000F101031CF10326
:1036A0000800F601F11F552B562B5D2BF009F1098F
:1036B000F00A0319F10AF601F60AF31F602B612BD9
:1036C0006A2BF209F309F20A0319F30A0130F40034
:1036D0007408F606F701F801700871040319712BDC
:1036E000722BA12BF501F50A7E2B0130F035F10D7F
:1036F000890B762B0130F4007408F507F11F812B3C
:10370000822B752B0130F735F80D890B832B71084F
:103710007302031D8D2B70087202031C902B912BDA
:10372000962B7008F2027108F33B77140130F136E2
:10373000F00C890B972B0130F502031DA02BA12B58
:10374000822B76080319A52BA62BAB2BF709F809BA
:10375000F70A0319F80A7808F1007708F000080062
:10376000230027082000A500230026082000A4002D
:10377000230025082000A300230024082000A20025
:103780007308A5007208A4007108A3007008A200C5
:103790002208F4002308F5002408F6002508F700A5
:1037A0001730F736F60CF50CF40C890BD12BFF30E3
:1037B0007405A00000307505A10020082104031D38
:1037C000E22BE32B042C2208F4002308F500240844
:1037D000F6002508F7000130F435F50DF60DF70D6C
:1037E000890BEC2B7708760475047404031DF92B00
:1037F000FA2BFF2B0230F0000030F1002E2C0330AA
:10380000F0000030F1002E2C200A2104031D092CA9
:103810000A2C2A2C2208F4002308F5002408F600BC
:103820002508F7000930F435F50DF60DF70D890B75
:10383000132C77087604750474040319202C222CA9
:103840000130232C0030F800F9017808F0007908E5
:10385000F1002E2C0430F0000030F10008000030A0
:1038600020003505BD0000303605BE00803037052C
:10387000BF007F303805C00040083F043E043D04CF
:10388000031D432C442C4C2C0030B8000030B700F2
:103890000030B6000030B50000303905BD00003002
:1038A0003A05BE0080303B05BF007F303C05C000BC
:1038B00040083F043E043D04031D5F2C602C682C2F
:1038C0000030BC000030BB000030BA000030B9004E
:1038D000B81F6B2C6C2C842C0030BD000030BE0057
:1038E0000030BF008030C0003508BD023608BE3B46
:1038F0003708BF3B3808C03B4008B8003F08B70056
:103900003E08B6003D08B500BC1F872C882CA02CB3
:103910000030BD000030BE000030BF008030C0006D
:103920003908BD023A08BE3B3B08BF3B3C08C03BE0
:103930004008BC003F08BB003E08BA003D08B90083
:103940008030B8068030BC063C083802031DB22C1B
:103950003B083702031DB22C3A083602031DB22C75
:10396000390835020318B52CB62CB82C0310B92C25
:1039700003140800F80078080319BF2CC02CD42CBD
:10398000F31FC32CC42CD42C7009FA007109FB005E
:103990007209FC007309FD00FA0A0319FB0A0319F6
:1039A000FC0A0319FD0ADC2C7308FD007208FC00F8
:1039B0007108FB007008FA00730872047104700447
:1039C000031DE32CE42CED2C0030F3000030F2005A
:1039D0000030F1000030F000652D9630F4007408DE
:1039E000F900FD2C0130F4007408F9070130FD36B0
:1039F000FC0CFB0CFA0C890BF72CFE307D05031D2B
:103A0000022D032DF22C172D0130F4007408F90754
:103A10000130FA070030FB3D0030FC3D0030FD3D39
:103A20000130FD36FC0CFB0CFA0C890B112DFF301C
:103A30007D05031D1C2D1D2D042D272D0130F902A0
:103A40000130FA35FB0DFC0DFD0D890B212DFC1B02
:103A50002A2D2B2D312D023079020318302D312DD6
:103A60001E2D7918342D352D3D2DFF30FA05FF30F0
:103A7000FB057F30FC05FF30FD050310F90C7908CC
:103A8000F400F501F601F7011830F435F50DF60DE7
:103A9000F70D890B452D7408FA047508FB047608A8
:103AA000FC047708FD0478080319572D582D5D2D67
:103AB000F31F5B2D5C2D5D2DFD177D08F3007C0849
:103AC000F2007B08F1007A08F00008002000A7014E
:103AD000A801A001A101702D0130F6070030F73DCB
:103AE000A601A60A76088400770885001200203A0D
:103AF00003197B2D7C2D912D760884007708850095
:103B00000008F73EF800FF3003180030F9000030DD
:103B10007902053003197802031C8F2D902D912D09
:103B2000A6012608F800F9017808A2007908A30088
:103B300022082304031D9D2D9E2D6C2DA82D0130E0
:103B4000A0000030A1000130F6070030F73DDC2D69
:103B500076088400770885000008F800F9017908E4
:103B6000003A0319B42DDC2D78082B3A0319A32D44
:103B7000063A03199F2DDC2D76088400770885000E
:103B80000008F8002808F1002708F0000A30F200C9
:103B90000030F300983111209D317108FA00780847
:103BA0007002F900031CFA037908303E2000A700D8
:103BB00000307A3DA800A32D7608840077088500A0
:103BC0000008D03EF800FF3003180030F900003044
:103BD00079020A3003197802031CEF2DF12D013010
:103BE000F22D0030FA00FB017A08A4007B08A50042
:103BF00024082504031DFD2DFE2DBC2D20082104C5
:103C0000031D032E042E102E2709F8002809F900A1
:103C1000F80A0319F90A7808F6007908F700142E53
:103C20002808F7002708F6000800F201283086006F
:103C300000308700473FF000F01F1F2E202E412E3E
:103C40002000A809A909AA09AB09AC09AD09AE0968
:103C5000AF09A80A031D3F2EA90A031D3F2EAA0A79
:103C6000031D3F2EAB0A031D3F2EAC0A031D3F2E42
:103C7000AD0A031D3F2EAE0A031D3F2EAF0AF2010F
:103C8000F20A2030860000308700473FF000F01F26
:103C90004A2E4B2E6A2E2000A009A109A209A309D1
:103CA000A409A509A609A709A00A031D6A2EA10A4D
:103CB000031D6A2EA20A031D6A2EA30A031D6A2E83
:103CC000A40A031D6A2EA50A031D6A2EA60A031D57
:103CD0006A2EA70A200020082104220423042404B9
:103CE0002504260427040319762E772ECA2EF10107
:103CF000F10A862EA035A10DA20DA30DA40DA50DD0
:103D0000A60DA70D0130F0007008F107A71F892E3E
:103D10008A2E7A2E27082F02031DA82E26082E028F
:103D2000031DA82E25082D02031DA82E24082C02F1
:103D3000031DA82E23082B02031DA82E22082A02E9
:103D4000031DA82E21082902031DA82E20082802E1
:103D5000031CAB2EAC2EBC2E2008A8022108A93BC8
:103D60002208AA3B2308AB3B2408AC3B2508AD3B0B
:103D70002608AE3B2708AF3BA736A60CA50CA40C23
:103D8000A30CA20CA10CA00C0130F102031DC92E42
:103D9000CA2E8A2E72080319CE2ECF2EED2EA80918
:103DA000A909AA09AB09AC09AD09AE09AF09A80A6E
:103DB000031DED2EA90A031DED2EAA0A031DED2EEB
:103DC000AB0A031DED2EAC0A031DED2EAD0A031D3B
:103DD000ED2EAE0A031DED2EAF0A20002808A0002C
:103DE0002908A1002A08A2002B08A3002C08A4007F
:103DF0002D08A5002E08A6002F08A7000800F20134
:103E00002030860000308700473FF000F01F092F68
:103E10000A2F2B2F2000A009A109A209A309A40998
:103E2000A509A609A709A00A031D292FA10A031D98
:103E3000292FA20A031D292FA30A031D292FA40A33
:103E4000031D292FA50A031D292FA60A031D292FAB
:103E5000A70AF201F20A2830860000308700473FA7
:103E6000F000F01F342F352F582F2000A809A90982
:103E7000AA09AB09AC09AD09AE09AF09A80A031D2F
:103E8000542FA90A031D542FAA0A031D542FAB0A4D
:103E9000031D542FAC0A031D542FAD0A031D542FCC
:103EA000AE0A031D542FAF0A0130F0007008F2066D
:103EB00073308600003087000830F00000301E00AC
:103EC000F00B5F2F20002008210422042304240487
:103ED00025042604270403196E2F6F2FCB2FF10121
:103EE000F10A7E2FA035A10DA20DA30DA40DA50DE5
:103EF000A60DA70D0130F0007008F107A71F812F54
:103F0000822F722FF335F40DF50DF60DF70DF80D28
:103F1000F90DFA0D27082F02031DA82F26082E02DF
:103F2000031DA82F25082D02031DA82F24082C02ED
:103F3000031DA82F23082B02031DA82F22082A02E5
:103F4000031DA82F21082902031DA82F20082802DD
:103F5000031CAB2FAC2FBD2F2008A8022108A93BC2
:103F60002208AA3B2308AB3B2408AC3B2508AD3B09
:103F70002608AE3B2708AF3B7314A736A60CA50C4A
:103F8000A40CA30CA20CA10CA00C0130F102031D87
:103F9000CA2FCB2F822F72080319CF2FD02FEE2FCD
:103FA000F309F409F509F609F709F809F909FA0915
:103FB000F30A031DEE2FF40A031DEE2FF50A031D6D
:103FC000EE2FF60A031DEE2FF70A031DEE2FF80A57
:103FD000031DEE2FF90A031DEE2FFA0A73082000C5
:103FE000A0007408A1007508A2007608A300770855
:103FF000A4007808A5007908A6007A08A7000800A0
:104E640071082300B4007008B3000800710823001F
:104E7400B8007008B7000800803021009E009F0130
:104E84009B019C0101309D000800623032009900B2
:104E94009B019D0103309F009E010800F00020004B
:104EA400111E552F562F512F700823009A00080009
:104EB4009231B222A7319831D720A731A7314727A1
:104EC400A73188310020A731A7313E27A731983177
:104ED4009220A73108007A2F710884007208850097
:104EE4000008A7315027A7310130F1070030F23D07
:104EF40071088400720885001200031D822F832F1D
:104F04006E2F0800F3007308F200F20DF20D210079
:104F14001D087206033972069D001D14000021004D
:104F24009D149D18962F972F932F1C08F1001B0892
:104F3400F00008007008D03EF200FF30713DF3002D
:104F4400003073020A3003197202031CAA2FAC2F1B
:104F54000130AD2F0030F400F5017408F00075083D
:104F6400F10008007008BF3EF200FF30713DF3000D
:104F7400003073021A3003197202031CC22FC42FAB
:104F84000130C52F0030F400F5017408F0007508F5
:104F9400F10008007408803AF50080307502031DA2
:104FA400D52F013073020318D82FD92FE52F730999
:104FB400F5007409F600F50A0319F60A7508F300FA
:104FC4007608F400E52F0800F4007408F200720873
:104FD400F300F02F0130F2007208F4077408860021
:104FE400023087000108031DF82FF92FEC2F7308F6
:104FF4007402F000F101F01BF10308004D34473452
:105004003834313432344D344F344E3449345434DA
:105014004F3452342034563431342E343034303416
:105024000D340A340034253464342C3425343534B6
:105034002E343334663456340D340A34003449344F
:105044004E34463400344E3441344E3400346934E2
:105054006E34663400346E3461346E3400346C342F
:04506400663400347A
:020000040001F9
:08000E00EC3FF33FFF3FFF3F11
:00000001FF
